:100000000C946A070C9492070C9492070C94920734
:100010000C9492070C9492070C9492070C949207FC
:100020000C9492070C9492070C9492070C949207EC
:100030000C9492070C9492070C9492070C949207DC
:100040000C944D0D0C9492070C94C4070C949E07CD
:100050000C9492070C9492070C9492070C949207BC
:100060000C9492070C94920700000000000000001E
:100070000000000000000000FFFF0F00000400620D
:10008000080008080003000C01030B5A02030609CC
:100090000303171004030023050300170603096375
:1000A0000703090C08030C10090332221000160084
:1000B00011000101120000001300010000013003D3
:1000C000010137020301000D800200610201B0C18D
:1000D000FFFF3200010000010200000103003010A8
:1000E000090001000C000000900000800F000000DB
:1000F000100200001102EF001202000013028F0133
:10010000000500000105000002055F000104010078
:1001100004040000FFFF320007000001FFFF32006F
:1001200000020000010200000100FF322800F60377
:10013000010100CF03008130ED0464031281E80364
:10014000851078CB05392C003402F70120EA020033
:1001500000B00100B102001BB40100C00121C101C7
:1001600011C5023F3CC701B5360148F20100260126
:1001700001E00F0F26240B0E0954A8460C17090F97
:100180000700E10F00191B0410072A473903060670
:1001900030380F1100FF9629003A01550100FF3257
:1001A0002800F603090103B00140B40100C0012397
:1001B000C10110C5022B2BC701C0360188B1020056
:1001C0001BB701071100FF9629003A01550100FFF6
:1001D0003228001100FF9629003A0155010028003D
:1001E0001100FF64B00100C10410100202C006003B
:1001F0003500000102C50104D2020104CA0100EA6F
:1002000001803601483A01552A04000000EF2B0412
:100210000000018F30040000018F29000207083020
:10022000050736000B071312010000010200000150
:100230000300301008000202090000000C0000005A
:100240000F00000000010000020100000301000097
:10025000FFFFC8000001901101012702FFFF3200DB
:100260000201BD01FFFF32000301002D81020E00DB
:10027000FFFF320000020000010200000003000046
:100280000103070702030606050300000603000D2D
:100290000703060708030500090307000C03000015
:1002A0000D030A00100200001102EF00120200000C
:1002B0001302AF0100040031010401000404000036
:1002C0000005000001050000020500000305000014
:1002D00004050000050500001000100011000006D4
:1002E0002000020007007301E500F0780100000122
:1002F00002000002030030100400000005000000AE
:1003000008000702090000000A0000000C000000BD
:100310000D0000000F000000100000001100070099
:10032000120000001300000007000100FFFFC800DA
:100330001000901611002702FFFF320012000D007E
:10034000FFFF32001300001229000A002B000D00ED
:10035000FFFF3200200000002100000030000000FC
:10036000310004043200030035000504360008089B
:100370003700070438000303390007073C00040571
:100380003D000808500000005100EF00520000003E
:1003900053003F0160000027610001006A00000077
:1003A0008000000081000000820000008300000047
:1003B0008400000085000000900010009200000002
:1003C00007003301E500008000000100010000018A
:1003D00002000007030030100400000008000202C1
:1003E000090000000A0000000C0000000D000000E1
:1003F0000F000000100000001100070012000000B4
:1004000013000000FFFF32001000B01711000700BA
:10041000FFFF0A0012003A01FFFF0A001300001A52
:1004200029000C00FFFF0A00300000003100050524
:1004300032000400350006003600070737000501CA
:1004400038000200390007073C0004073D00070898
:10045000500000005100EF005200000053003F0127
:10046000600000A7610001006A0000002100000098
:1004700020000000800000008100000082000000D9
:100480008300000084000000850000009000100040
:1004900092000000930003009500100197000000F7
:1004A0009800000007007301FFFF32000100FF32D7
:1004B00028003A01551100FF32290001001100FF08
:1004C000643601803A0155B2050C0C003333B70194
:1004D00035BB012BC00104C20201FFC30111C401DD
:1004E00020C6010FD002A4A1E00ED000050E150D0C
:1004F0003743470915121619E10ED000050D0C06F9
:100500002D44400E1C1816192A04000000EF2B047D
:100510000000013F2900FF0A00000100FFFF640006
:100520000100000110009017600000A761000100A9
:1005300046000200130010801200FE800200000539
:1005400003003010300003033100030332000303C3
:1005500033000003340003003500030336001400A9
:100560003700030338000303390003033A00000394
:100570003B0003003C0003033D0000149200000216
:100580009300030390000D08010000010200000722
:1005900003003010040000000800020309000000FE
:1005A0000A0000000C0000000D0000000F00000019
:1005B000FFFF780030000303310003033200030320
:1005C0003300000334000300350003033600140039
:1005D0003700030338000303390003033A00000324
:1005E0003B0003003C0003033D000014600000A733
:1005F000610001006A0000009000330095001001C6
:10060000FF000100FF000C00FF000000FFFF64007E
:100610000300301007007301FFFF320000000100EB
:10062000FFFF64000100000110009017600000A7A8
:100630006100010046000200130010801200FE80DD
:1006400002000005030030103000030331000303F3
:1006500032000303330000033400030035000303BA
:100660003600140037000303380003033900030386
:100670003A0000033B0003003C0003033D0000146C
:10068000920000029300030390000D080100000196
:1006900002000007030030100400000008000203FD
:1006A000090000000A0000000C0000000D0000001E
:1006B0000F000000FFFF7800300003033100030348
:1006C000320003033300000334000300350003034A
:1006D0003600140037000303380003033900030316
:1006E0003A0000033B0003003C0003033D000014FC
:1006F000600000A7610001006A0000009000330064
:1007000095001001FF000100FF000C00FF00000039
:10071000FFFF64000300300007007301FFFF320099
:100720006D61746368657320746865207475746F97
:100730007269616C2E00416C736F2069662075735D
:10074000696E672074686520627265616B6F75748D
:100750002C20646F75626C652D636865636B207413
:1007600068617420616C6C20776972696E670049FA
:1007700066207573696E67207468652062726561B2
:100780006B6F757420626F6172642C2069742073C2
:10079000686F756C64204E4F542062652023646539
:1007A00066696E6564210073686F756C64206170A2
:1007B0007065617220696E20746865206C69627270
:1007C00061727920686561646572202841646166A0
:1007D000727569745F5446542E68292E00202023B8
:1007E000646566696E65205553455F4144414652D4
:1007F0005549545F534849454C445F50494E4F5505
:1008000054004966207573696E67207468652041DD
:100810006461667275697420322E38222054465401
:100820002041726475696E6F20736869656C642C11
:1008300020746865206C696E653A00556E6B6E6F4A
:10084000776E204C43442064726976657220636839
:1008500069703A2000466F756E6420307839333401
:1008600031204C43442064726976657200466F758E
:100870006E642048583833353744204C4344206454
:10088000726976657200466F756E64205543383222
:100890003330204C43442064726976657200466FA1
:1008A000756E6420535437373831204C43442064EC
:1008B000726976657200466F756E6420494C4939DD
:1008C000333431204C4344206472697665720046AB
:1008D0006F756E642048583833343747204C434492
:1008E0002064726976657200466F756E64204C47AD
:1008F000445034353335204C434420647269766566
:100900007200466F756E6420494C49393332382085
:100910004C43442064726976657200466F756E645C
:1009200020494C4939333235204C434420647269A4
:10093000766572005573696E6720416461667275F1
:10094000697420322E34222054465420427265614C
:100950006B6F757420426F6172642050696E6F75A1
:100960007400544654204C4344207465737400430F
:10097000616C6C696E670048616E67696E672075AF
:10098000700000000000240027002A000000000082
:10099000003E5B4F5B3E3E6B4F6B3E1C3E7C3E1C05
:1009A000183C7E3C181C577D571C1C5E7F5E1C004B
:1009B000183C1800FFE7C3E7FF0018241800FFE702
:1009C000DBE7FF30483A060E2629792926407F05C5
:1009D0000507407F05253F5A3CE73C5A7F3E1C1CDB
:1009E00008081C1C3E7F14227F22145F5F005F5F9B
:1009F00006097F017F006689956A60606060609487
:100A0000A2FFA29408047E040810207E201008088B
:100A10002A1C08081C2A08081E101010100C1E0C96
:100A20001E0C30383E3830060E3E0E060000000028
:100A30000000005F00000007000700147F147F140F
:100A4000242A7F2A12231308646236495620500054
:100A500008070300001C2241000041221C002A1C40
:100A60007F1C2A08083E080800807030000808082B
:100A70000808000060600020100804023E5149454B
:100A80003E00427F400072494949462141494D3369
:100A90001814127F1027454545393C4A49493141D0
:100AA000211109073649494936464949291E00009E
:100AB00014000000403400000008142241141414F3
:100AC0001414004122140802015909063E415D59DF
:100AD0004E7C1211127C7F494949363E41414122E8
:100AE0007F4141413E7F494949417F090909013E12
:100AF000414151737F0808087F00417F4100204039
:100B0000413F017F081422417F404040407F021C4A
:100B1000027F7F0408107F3E4141413E7F09090961
:100B2000063E4151215E7F0919294626494949322D
:100B300003017F01033F4040403F1F2040201F3FF3
:100B40004038403F63140814630304780403615978
:100B5000494D43007F4141410204081020004141BA
:100B6000417F040201020440404040400003070866
:100B70000020545478407F28444438384444442862
:100B8000384444287F385454541800087E09021809
:100B9000A4A49C787F0804047800447D4000204091
:100BA000403D007F1028440000417F40007C0478D5
:100BB00004787C080404783844444438FC1824241D
:100BC0001818242418FC7C0804040848545454249D
:100BD00004043F44243C4040207C1C2040201C3C1A
:100BE0004030403C44281028444C9090907C446411
:100BF000544C4400083641000000770000004136A4
:100C0000080002010204023C2623263C1EA1A16129
:100C1000123A4040207A385454555921555579415B
:100C20002254547842215554784020545579400C30
:100C30001E52721239555555593954545459395513
:100C40005454580000457C410002457D4200014556
:100C50007C407D1211127DF0282528F07C545545EA
:100C6000002054547C547C0A097F49324949493256
:100C70003A4444443A324A4848303A4141217A3A67
:100C800042402078009DA0A07D3D4242423D3D4033
:100C900040403D3C24FF2424487E4943662B2FFCE2
:100CA0002F2BFF0929F620C0887E09032054547990
:100CB000410000447D413048484A32384040227A61
:100CC000007A0A0A727D0D19317D2629292F2826DE
:100CD0002929292630484D402038080808080808E6
:100CE0000808382F10C8ACBA2F102834FA00007B3F
:100CF000000008142A142222142A14085500550052
:100D000055AA55AA55AAFF55FF55FF000000FF0040
:100D1000101010FF00141414FF001010FF00FF103B
:100D200010F010F0141414FC001414F700FF00006D
:100D3000FF00FF1414F404FC141417101F10101FEC
:100D4000101F1414141F00101010F0000000001FDA
:100D5000101010101F10101010F010000000FF10E5
:100D60001010101010101010FF10000000FF1400E1
:100D700000FF00FF00001F10170000FC04F4141413
:100D80001710171414F404F40000FF00F7141414DF
:100D900014141414F700F7141414171410101F105F
:100DA0001F141414F4141010F010F000001F101F82
:100DB0000000001F14000000FC140000F010F010F0
:100DC00010FF10FF141414FF141010101F00000067
:100DD00000F010FFFFFFFFFFF0F0F0F0F0FFFFFF6B
:100DE0000000000000FFFF0F0F0F0F0F38444438C2
:100DF00044FC4A4A4A347E02020606027E027E0211
:100E000063554941633844443C04407E201E20061B
:100E1000027E020299A5E7A5991C2A492A1C4C7258
:100E200001724C304A4D4D303048784830BC625ADF
:100E3000463D3E494949007E0101017E2A2A2A2A6F
:100E40002A44445F444440514A444040444A51404B
:100E50000000FF0103E080FF000008086B6B08360C
:100E600012362436060F090F06000018180000007D
:100E70001010003040FF0101001F01011E00191D6C
:100E80001712003C3C3C3C00000000000000000049
:100E9000250028002B0004040404040404040202B6
:100EA00002020202030303030303010204081020E9
:100EB00040800102040810200102040810200000F4
:100EC0000008000201000003040700000000000009
:100ED0000000092111241FBECFEFD8E0DEBFCDBF37
:100EE00011E0A0E0B1E0E4E8F8E402C005900D9262
:100EF000A63CB107D9F724E0A6ECB1E001C01D92F1
:100F0000AB36B207E1F717E0CAE6D7E004C0219795
:100F1000FE010E942624C936D107C9F70E942C1B66
:100F20000C9440240C9400008EED91E00E94270860
:100F300021E0892B09F420E0822F08951F920F925F
:100F40000FB60F9211242F933F934F935F936F939C
:100F50007F938F939F93AF93BF93EF93FF938EED08
:100F600091E00E942F0CFF91EF91BF91AF919F9163
:100F70008F917F916F915F914F913F912F910F9042
:100F80000FBE0F901F9018951F920F920FB60F92E1
:100F900011242F938F939F93EF93FF93E091EE0192
:100FA000F091EF018081E091F401F091F50182FD73
:100FB00012C090818091F7018F5F8F732091F801AB
:100FC000821751F0E091F701F0E0E252FE4F958F69
:100FD0008093F70101C08081FF91EF919F918F91E4
:100FE0002F910F900FBE0F901F901895FC01538DFD
:100FF000448D252F30E0842F90E0821B930B5417F3
:1010000010F0CF96089501970895FC01918D828D7F
:10101000981761F0828DDF01A80FB11D5D968C914C
:10102000928D9F5F9F73928F90E008958FEF9FEF57
:101030000895FC01918D828D981731F0828DE80F13
:10104000F11D858D90E008958FEF9FEF0895FC01CD
:10105000918D228D892F90E0805C9F4F821B91099A
:101060008F739927089580E090E0892B29F00E94E2
:10107000940781110C94000008953FB7F894809173
:10108000DA019091DB01A091DC01B091DD0126B580
:10109000A89B05C02F3F19F00196A11DB11D3FBFB0
:1010A000BA2FA92F982F8827820F911DA11DB11D3E
:1010B000BC01CD0142E0660F771F881F991F4A953A
:1010C000D1F708950E942C24FC0132A923A922956E
:1010D00021706227462F50E0558F448F30FF0CC09F
:1010E000611103C080E290E002C081E290E040E044
:1010F00050E060E00C946312FC01228D338D2339A3
:10110000F7E73F07C9F040F42435E1E03E0761F01E
:1011100020323445A9F410C0263263E9360761F065
:101120002930354B69F408C0440F551F440F551F33
:10113000436167E070E006C0426061E074E002C0B5
:1011400061E670E00C94BE12CF92DF92EF92FF92B4
:101150000F931F93CF93DF9300D000D0CDB7DEB7AE
:101160008C017A01690177FD53C057FD51C0FC0124
:1011700080859185681779070CF04AC08285938530
:10118000481759070CF044C0F801828D938D8732BF
:10119000934961F4F8018589823021F4F0E2EF0E81
:1011A000F11C04C0833011F4605E7F4FF80122A966
:1011B00082A193A120FF19C079836A837B836C830A
:1011C000AE014F5F5F4F64E090E00E946312F80150
:1011D00084A1F982EA82FB82EC82AE014F5F5F4F0D
:1011E00064E090E00E9463120CC0AB01BC01C80136
:1011F0000E94BE12F80164A175A1A701C8010E9456
:10120000BE12F80166A177A1A601C8010E94BE1214
:101210000F900F900F900F90DF91CF911F910F9132
:10122000FF90EF90DF90CF900895AF92BF92CF9252
:10123000DF92EF92FF920F931F93CF93DF936C0196
:1012400037FF05C0620F731F319521953109260FB5
:10125000371F77FF02C060E070E0F601808591855E
:10126000281739070CF4C9015C01A61AB70A17FF41
:1012700005C0400F511F119501951109040F151F4D
:1012800057FF02C040E050E0F60122853385021787
:1012900013070CF49801E901C41BD50B8901015017
:1012A00011099C0121503109C6010E94D2164398B0
:1012B0004298F60186A197A125B12C7F392F337072
:1012C000232B25B92BB123709C7F922B9BB941987E
:1012D000419A95B19C7F282F2370922B95B99BB191
:1012E00093708C7F892B8BB94198419AAC16BD06BF
:1012F0002CF49A2D8B2D5E01C92FD82F429A9F2D49
:1013000093705F2D5C7F4E2D43706E2D6C7F1C168D
:101310001D06D4F4950185B18C7F892B85B98BB1DD
:101320008370852B8BB94198419A85B18C7F842B32
:1013300085B98BB18370862B8BB94198419A215026
:10134000310949F72197E3CF439AF60182A980FD3D
:101350000FC0028513850150110920853185215068
:10136000310940E050E060E070E0C6010E94D21612
:10137000DF91CF911F910F91FF90EF90DF90CF9071
:10138000BF90AF900895EF92FF920F931F93CF936A
:10139000DF93CDB7DEB72A970FB6F894DEBF0FBE46
:1013A000CDBF7C01862F8370F701858B962F9170BE
:1013B00060FF03C02681378103C0F7012481358196
:1013C000F70131872087992319F02481358103C0E3
:1013D000F70126813781F70133872287823041F078
:1013E000833041F0813011F088E405C088E203C009
:1013F00088E901C088EF8A87F70122A933A930FF65
:1014000003C08A8580588A8731FF04C09A8580E4AA
:1014100089278A8733FF04C09A8588E089278A87CD
:10142000F701828D938D20FF79C08431F8E69F0704
:10143000F9F49A85892F881F8827881F8295880F3D
:10144000880F807C96FD02C020E001C020E29872E7
:101450009A871F828260822B88878BE38987AE01FF
:10146000495F5F4F63E086EB90E00E94631233C0F8
:10147000833629E1920761F0813834E9930741F01E
:10148000813145E1940721F08138E5E19E0719F5A6
:101490002A8527FF02C021602A872A8526FF02C0ED
:1014A00022602A878336F9E19F0719F48A858F73B2
:1014B00011C0813824E9920721F0813835E1930782
:1014C00019F42A852F722A878131954121F48A8562
:1014D0008F7E806C8A872AE230E0F70133A322A353
:1014E0008BE290E095A384A34CE250E057A346A37F
:1014F00031A720A733A722A795A784A797A786A7D8
:10150000AE01465F5F4F61E086E390E00E946312A8
:101510008A8590E0F701978F868FCDC02A85833921
:10152000F7E79F0709F448C050F4843541E0940779
:1015300081F08032E4E59E0709F073C03DC0863239
:10154000F3E99F07C9F1893035EB930709F069C0CA
:1015500033C087E390E0F70191A780A786E390E08E
:1015600093A782A789E390E095A784A788E390E0FA
:1015700097A786A780E290E093A382A381E290E000
:1015800095A384A382E290E097A386A3822F022EE4
:10159000000C990B8827990F881F9927982F882767
:1015A000990F26FD03C040E050E002C040E051E04A
:1015B0008862482B592B67C040E052E0F70153A3E3
:1015C00042A341E052E055A344A342E052E057A3B6
:1015D00046A340E152E051A740A741E152E053A7A2
:1015E00042A742E152E055A744A743E152E057A782
:1015F00046A727FD03C020E030E002C020E030E82D
:101600008632F3E99F0731F08032944519F040E0CB
:101610005AE602C040E055E3422B532B60E074E0F1
:1016200027C080E290E0F70193A382A381E290E0DB
:1016300095A384A382E290E097A386A380E590E03F
:1016400091A780A781E590E093A782A782E590E02B
:1016500095A784A783E590E097A786A727FD03C0F9
:1016600040E050E002C040E050E8576260E670E0C1
:10167000C7010E94BE128A8586FD03C040E050E08B
:1016800002C040E051E061E070E0C7010E94BE127C
:101690008A8585FD03C040E050E002C048E050E08C
:1016A00083FD50614063F701578F468F63E070E020
:1016B000C7010E94BE12F701858980FF1CC082A964
:1016C00093A992FD18C082A193A124A135A133A3AF
:1016D00022A395A384A380A591A524A535A531A710
:1016E00020A795A784A782A593A526A537A533A7EC
:1016F00022A797A786A7F701028513850150110934
:10170000208531852150310940E050E060E070E0F3
:10171000C7010E94D216F70146815781828D938DB1
:101720008732F3E99F0741F4F701258922502230DF
:1017300018F400E210E002C000E010E08732F3E9A4
:101740009F0729F022273327201B310B04C020E2FA
:1017500030E0201B310BF70162A960FF24C0198221
:101760000A835B834C833D832E83AE014F5F5F4FC3
:1017700066E083E390E00E94631219820A83AE015F
:101780004F5F5F4F62E087E390E00E946312F701D2
:1017900082A980FF57C040E050E060E083E190E024
:1017A0000E9463124FC08339F7E79F0779F1F8F47D
:1017B000803234E5930751F18338E7E79E0711F152
:1017C0008435914081F5400F511F4150510961E32B
:1017D00070E0C7010E94BE12A80162E370E0C70179
:1017E0000E94BE1240E050E063E370E028C0863201
:1017F00023E9920759F0893035EB930739F08033AC
:10180000924889F4F701448D558D11C0F701448D3C
:10181000558D426061E074E0C7010E94BE12A801CC
:1018200064E074E00CC0F701448D558D426061E6C0
:1018300070E0C7010E94BE12A8016AE670E0C7010D
:101840000E94BE122A960FB6F894DEBF0FBECDBF1F
:10185000DF91CF911F910F91FF90EF900895FC01C0
:10186000848DDF01A80FB11DA35ABF4F2C91848D29
:1018700090E001968F739927848FA689B7892C935E
:10188000A089B1898C91837080648C93938D848DB1
:10189000981306C00288F389E02D80818F7D8083B4
:1018A0000895EF92FF920F931F93CF93DF93EC0174
:1018B00081E0888F9B8D8C8D981305C0E889F9890C
:1018C000808185FD26C0F62E0B8D10E00F5F1F4F27
:1018D0000F731127E02E8C8DE8120CC00FB607FC99
:1018E000FACFE889F989808185FFF5CFCE010E9482
:1018F0002F0CF1CF8B8DFE01E80FF11DE35AFF4F46
:10190000F0829FB7F8940B8FEA89FB89808180620F
:101910000AC09FB7F894EE89FF896083E889F98946
:1019200080818370806480839FBF81E090E0DF913D
:10193000CF911F910F91FF90EF900895CF93DF9378
:10194000EC01888D8823C9F0EA89FB89808185FDB7
:1019500005C0A889B9898C9186FD0FC00FB607FC18
:10196000F5CF808185FFF2CFA889B9898C9185FF59
:10197000EDCFCE010E942F0CE7CFDF91CF910895DC
:10198000CF93DF9390E0FC01E655F14F2491FC01E9
:10199000EA56F14F8491882361F190E0880F991FF6
:1019A000FC01EE57F64FC591D491FC01E457F14F7D
:1019B000A591B491611109C09FB7F89488812095D1
:1019C00082238883EC912E230BC0623061F49FB791
:1019D000F8948881322F309583238883EC912E2BC5
:1019E0002C939FBF06C08FB7F894E8812E2B2883D5
:1019F0008FBFDF91CF9108958E3008F08E508770A1
:101A0000806480937C0080917A00806480937A0067
:101A100080917A0086FDFCCF80917800209179003A
:101A200090E0922B08958F929F92AF92BF92CF92A7
:101A3000DF92EF92FF926B017C010E943D084B0107
:101A40005C01C114D104E104F104F1F00E943D08ED
:101A5000DC01CB0188199909AA09BB09883E93408A
:101A6000A105B10570F321E0C21AD108E108F1081F
:101A700088EE880E83E0981EA11CB11CC114D1040D
:101A8000E104F10419F7DDCFFF90EF90DF90CF90E4
:101A9000BF90AF909F908F9008951F920F920FB6B6
:101AA0000F9211242F933F938F939F93AF93BF93E4
:101AB0008091D6019091D701A091D801B091D90120
:101AC0003091D50123E0230F2D3720F40196A11D7D
:101AD000B11D05C026E8230F0296A11DB11D20935C
:101AE000D5018093D6019093D701A093D801B093EC
:101AF000D9018091DA019091DB01A091DC01B091D4
:101B0000DD010196A11DB11D8093DA019093DB01E7
:101B1000A093DC01B093DD01BF91AF919F918F91B4
:101B20003F912F910F900FBE0F901F9018950F931C
:101B30001F93CF93DF93EC018B01101611060CF06D
:101B40004FC0FE01859194912496FE0132976591D4
:101B500074918F3F2FEF920729F480E090E00E946C
:101B6000130D3BC04398429825B12C7F392F337019
:101B7000232B25B93BB13370292F2C7F932F922B28
:101B80009BB94198419A95B19C7F282F2370922B45
:101B900095B99BB193708C7F892B8BB94198419AF1
:101BA000429A85B18C7F972F9370892B85B98BB121
:101BB0008370972F9C7F892B8BB94198419A85B16F
:101BC0008C7F962F9370892B85B98BB183706C7F36
:101BD000682B6BB94198419A439A04501109ADCFD3
:101BE000DF91CF911F910F910895DF92EF92FF92B5
:101BF0000F931F93CF93DF93CDB7DEB760970FB6E8
:101C0000F894DEBF0FBECDBF7C018B01101611060C
:101C100054F5F70184913196D490F2E0EF0EF11C67
:101C20008F3F41F46D2D70E080E090E00E94130D35
:101C3000D12C13C02E2DDE011196F701AD019E2F80
:101C4000921B9D1520F494919D933196F8CFED0C45
:101C5000F11C6D2D90E00E946312ED2DF0E03296A4
:101C60000E1B1F0BD3CF60960FB6F894DEBF0FBECE
:101C7000CDBFDF91CF911F910F91FF90EF90DF903B
:101C80000895EF92FF920F931F93DC01ED91FC9169
:101C900000A0F1A1E02D780101E010E009951F916D
:101CA0000F91FF90EF900895EF92FF920F931F9383
:101CB000DC01ED91FC9100A0F1A1E02D78018901FA
:101CC00021E030E009951F910F91FF90EF9008956A
:101CD0000895FC016370658B84819581268137812D
:101CE000613039F0633029F091878087338722870C
:101CF0000895318720879387828708956F927F9216
:101D00008F929F92AF92BF92CF92DF92EF92FF920B
:101D10000F931F93CF93DF93EC014B015A0169019D
:101D20003801E881F9810284F385E02D0995E88185
:101D3000F9810288F389E02D87019601A501B4019C
:101D4000CE010995A501460D571D41505109E88165
:101D5000F9810288F389E02D9601B401CE0109953D
:101D6000E881F9810088F189E02D9301A501B40192
:101D7000CE010995C80CD91CB60161507109E881E2
:101D8000F9810088F189E02D9301A501CE01099523
:101D9000E881F9810688F789E02DCE01DF91CF91A6
:101DA0001F910F91FF90EF90DF90CF90BF90AF9079
:101DB0009F908F907F906F9009948F929F92AF9297
:101DC000BF92CF92DF92EF92FF920F931F93CF9328
:101DD000DF934C016B015A01E901DC01ED91FC91AB
:101DE0006217730781F40417150724F48B2D58012B
:101DF000042F182F0A191B0998012F5F3F4F048CDD
:101E0000F58DE02D12C04017510709F52617370749
:101E100024F48D2D6901C62FD82F9E012C193D0960
:101E20002F5F3F4F068CF78DE02D8701A501B6018E
:101E3000C4010995DF91CF911F910F91FF90EF9011
:101E4000DF90CF90BF90AF909F908F9008950284C5
:101E5000F385E02D0995D401ED91FC910488F58975
:101E6000E02D9E01A501B601C4010995D401ED91B3
:101E7000FC910688F789E02DC401DF91CF911F9175
:101E80000F91FF90EF90DF90CF90BF90AF909F9019
:101E90008F900994EF92FF920F931F93DC011A9693
:101EA0000D911C911B9718962D913C911997ED91CE
:101EB000FC9100A0F1A1E02D7B0140E050E060E04A
:101EC00070E009951F910F91FF90EF9008954F9248
:101ED0005F926F927F928F929F92AF92BF92CF92BA
:101EE000DF92EF92FF920F931F93CF93DF936C01DA
:101EF0002B015A0139014801DC01ED91FC9102846A
:101F0000F385E02D0995E201640C751CD601ED9175
:101F1000FC91C615D7055CF40088F189E02D870196
:101F20009401A501BE01C60109952196EFCF06884F
:101F3000F789E02DC601DF91CF911F910F91FF909E
:101F4000EF90DF90CF90BF90AF909F908F907F9059
:101F50006F905F904F9009948F929F92AF92BF9233
:101F6000CF92DF92EF92FF920F931F93CF93DF9365
:101F7000EC015B014A016901E881F9810284F38582
:101F8000E02D099595012C0D3D1D21503109E88169
:101F9000F9810488F589E02D78018401A401B50157
:101FA000CE010995E881F9810688F789E02DCE01F7
:101FB000DF91CF911F910F91FF90EF90DF90CF9025
:101FC000BF90AF909F908F9009948F929F92AF9205
:101FD000BF92CF92DF92EF92FF920F931F93CF9316
:101FE000DF93EC015B014A0169017801E881F98125
:101FF0000284F385E02D0995C80CD91C8601015097
:102000001109E881F9810488F589E02D9501A40181
:10201000B501CE010995E881F9810688F789E02D9F
:10202000CE01DF91CF911F910F91FF90EF90DF9044
:10203000CF90BF90AF909F908F9009940895EF92AA
:10204000FF920F931F93DC01ED91FC9100A0F1A191
:10205000E02D09951F910F91FF90EF9008950F9338
:102060001F93DC01ED91FC91068CF78DE02D099515
:102070001F910F9108950F931F93DC01ED91FC9137
:10208000048CF58DE02D09951F910F910895DC01C9
:10209000ED91FC910084F185E02D09942F923F92FF
:1020A0004F925F926F927F928F929F92AF92BF9268
:1020B000CF92DF92EF92FF920F931F93CF93DF9314
:1020C00000D000D000D0CDB7DEB72C017E836D8369
:1020D0006A015901C801FC82EB824801841A950A01
:1020E00097FE03C091948194910835012D813E8122
:1020F000621A730A77FE03C07194619471086814C0
:1021000079045CF43A2D2B2D5C01832F922F3D81B5
:102110002E81DE82CD82C32ED22EAD81BE81AA1643
:10212000BB065CF43C2D2D2D6C01832F922F3D813D
:102130002E81BE82AD82A32EB22E85012D813E81DD
:10214000021B130B1C012C183D0837FE03C03194F1
:1021500021943108780117FF03C03FEFE31AF30A17
:10216000F594E794C816D9062CF08FEF9FEF9A8369
:10217000898304C0A1E0B0E0BA83A9832D813E81A8
:10218000A216B30624F1D201ED91FC910484F585E9
:10219000E02D2B813C816814790424F44D815E810B
:1021A000B60103C0A6016D817E81C2010995E218C6
:1021B000F308F7FE06C029813A81C20ED31EE00E55
:1021C000F11E8D819E8101969E838D83D7CF2696A9
:1021D0000FB6F894DEBF0FBECDBFDF91CF911F9138
:1021E0000F91FF90EF90DF90CF90BF90AF909F90B6
:1021F0008F907F906F905F904F903F902F900895B9
:10220000089580E090E00895EF92FF920F931F935E
:10221000DC011A960D911C911B9718962D913C91FB
:102220001997ED91FC9100A0F1A1E02D7B0140E018
:1022300050E060E070E009951F910F91FF90EF90E2
:102240000895AF92BF92CF92EF92FF920F931F9398
:10225000CF93DF93EC01262F888D998D009709F09D
:1022600040C06A3059F41D861C862C898E859F8556
:1022700038E0239F800D911D112441C06D3009F479
:10228000AAC08E898823C1F03C898C859D8546E053
:10229000349F800D911D1124488559854817590791
:1022A0005CF41D861C868E859F8548E0349F800DDA
:1022B000911D11249F878E87EA88FB8808891989D8
:1022C0004E855F856C857D85CC88CE010E94621825
:1022D0002C898C859D8536E0239F800D911D1124CE
:1022E00042C06A3079F41D861C862C89FC01369622
:1022F000E4918E859F852E9F800D911D11249F87CF
:102300008E8769C06D3009F466C0FC013496349143
:10231000631708F460C03196E491E61708F45BC0D7
:10232000FC01329665917491422F50E0431B510994
:1023300037E0349F5001359FB00C1124A60EB71E14
:10234000F501329634913196E491332311F0E11185
:102350000DC0F5013496E4912C898C859D85E29F12
:10236000800D911D11249D878C8735C0F501359610
:1023700044915E89552311F16C89E32FF0E0E40F5D
:10238000F11D47FDFA956E9FD0016F9FB00D11248E
:102390004C855D854A0F5B1FE885F985E417F507D5
:1023A0006CF41D861C86FC013696E4918E859F8513
:1023B0006E9F800D911D11249F878E87EA88FB8870
:1023C000088919894E855F856C857D85CC88CE010D
:1023D0000E946218BECF81E090E0DF91CF911F9103
:1023E0000F91FF90EF90CF90BF90AF900895409ADB
:1023F00040984098409843B189B1409A409A40989B
:102400004098409833B129B1409A437090E08C7F56
:10241000842B982F882733702C7F232B822B0895B1
:102420000F931F93CF934398429825B12C7F392F58
:102430003370232B25B92BB123709C7F922B9BB932
:102440004198419A95B19C7F282F2370922B95B982
:102450009BB193708C7F892B8BB94198419A84B141
:102460008C7F84B98AB183708AB9429A0E94F7112D
:102470008C010E94F711C82F0E94F711409A439ACD
:1024800084B1836084B98AB18C6F8AB920E030E06E
:10249000302F22271127002740E050E05C2F60E01A
:1024A00070E0042B152B262B372B492F50E060E0D2
:1024B00070E0CB01BA01602B712B822B932BCF9153
:1024C0001F910F9108954398429825B12C7F392F81
:1024D0003370232B25B92BB12370392F3C7F232B4D
:1024E0002BB94198419A25B12C7F382F3370232B7B
:1024F00025B92BB12370382F3C7F232B2BB9419862
:10250000419AFA017091D4015FEF560F1616A4F5A7
:102510002191429A35B13C7F422F4370342B35B91B
:102520003BB133702C7F232B2BB94198419A511129
:1025300002C0652FE9CF7723E1F30196429825B1D8
:102540002C7F392F3370232B25B92BB12370392FD2
:102550003C7F232B2BB94198419A25B12C7F382FF2
:102560003370232B25B92BB12370382F3C7F232BBD
:102570002BB94198419ADDCF439A089543984298E8
:1025800085B18C7F972F9370892B85B98BB1837020
:102590007C7F782B7BB94198419A85B18C7F962FAF
:1025A0009370892B85B98BB183706C7F682B6BB965
:1025B0004198419A429A85B18C7F952F9370892BCF
:1025C00085B98BB183705C7F582B5BB94198419A78
:1025D00085B18C7F942F9370892B85B98BB18370D3
:1025E0004C7F482B4BB94198419A439A08952F92BA
:1025F0003F924F925F926F927F928F929F92AF9293
:10260000BF92CF92DF92EF92FF920F931F93CF93DF
:10261000DF93CDB7DEB72C970FB6F894DEBF0FBEB1
:10262000CDBF9C878B87DC011D969C911D971E96C4
:102630008C911E971B96ED91FC911C97FA83E98370
:102640001F963C911F9750962C91611105C0292E21
:10265000382E39872A8704C0232E322E99878A87FD
:10266000AB85BC851696CD90DC9017971896AD90EB
:10267000BC901997CA14DB0410F4260101C025018F
:102680005694479456944794512CEB85FC8564806E
:102690007580228133813C832B8380809180D4019B
:1026A000ED91FC910284F385E02DC4010995F201BE
:1026B000EE0FFF1FF887EF832B813C81240D351D22
:1026C0003E832D8396012E1B3F0BD401ED91FC918F
:1026D0000684F785E02D71018501A3016D817E815E
:1026E000C4010995EF81F885AE1ABF0AF1E0AF1A6F
:1026F000B108640C751C6B817C816C0D7D1D6419A7
:102700007509615071096101750101E09201A30130
:10271000C4010E94FD1502E09201A3016D817E813A
:10272000C4010E94FD15D401ED91FC910688F78942
:10273000E02DC4010995EB85FC8520843184268138
:1027400037813C832B8384809580E280F380C08036
:10275000D180D601ED91FC910284F385E02DC60174
:102760000995AB80BC80EF81F885AE1ABF0A3201B3
:102770006E0C7F1CD601ED91FC910288F389E02D4F
:1027800009811A819501A401B301C6010995F101DE
:10279000E80DF91DFE83ED83AF0141505109D601CB
:1027A000ED91FC910288F389E02D09811A81950150
:1027B000B301C6010995EF81F8852E1A3F0A840CF2
:1027C000951CD601ED91FC910088F189E02D0981DD
:1027D0001A819101A401B701C6010995AB80BC80A3
:1027E000AE0CBF1CB50161507109D601ED91FC9191
:1027F0000088F189E02D09811A819101A401C601A7
:102800000995E980FA8001E09201A401B301C601B3
:102810000E94FE14A418B508B1E0AB1AB108E98013
:10282000FA8002E09201A401B501C6010E94FE14E3
:102830008D809E8084189508E1E08E1A9108E980C9
:10284000FA8004E09201A401B501C6010E94FE14C1
:10285000E980FA8008E09201A401B301C6010E9458
:10286000FE14D601ED91FC910688F789E02DC60192
:102870000995EB85FC85F2848085918596958795F1
:1028800024813581820F931FF4E0FF9E8019910906
:1028900011246B857C856F5E7F4FDB010D900020DE
:1028A000E9F711976D01C61AD70AAB85BC85ED9182
:1028B000FC91119716962D913C9117973695279577
:1028C00012964D915C911397240F351FB3E0FB9E38
:1028D000A00111244C9D70014D9DF00C5C9DF00CED
:1028E00011242E193F0935872487978786872985E4
:1028F000228B3A85338B208B318BAB85BC851A9626
:102900008C91811101C081E0848BEB85FC858081F5
:1029100091812C960FB6F894DEBF0FBECDBFDF912C
:10292000CF911F910F91FF90EF90DF90CF90BF90CC
:10293000AF909F908F907F906F905F904F903F905F
:102940002F900C94A01AEF92FF920F931F93CF93A6
:10295000DF93EC01E12CF12C08E010E020EF30E0F7
:1029600041E450E06AE070E086E394E00E941509DB
:10297000E6E3F4E08AE090E09587848781E490E0E4
:10298000978786878FEF9FEF938B828B918B808BBE
:1029900081E0848BBE01CF01DF91CF911F910F9118
:1029A000FF90EF900C947C1ACF92DF92EF92FF92FF
:1029B0000F931F93CF93DF936C017A018B01C0E0DB
:1029C000D0E0CE15DF0581F0D8016D918D01D601E3
:1029D000ED91FC910190F081E02DC6010995892BC4
:1029E00011F02196EECF7E01C701DF91CF911F91AB
:1029F0000F91FF90EF90DF90CF9008952F923F922C
:102A00004F925F926F927F928F929F92AF92BF92FE
:102A1000CF92DF92EF92FF920F931F93CF93DF93AA
:102A200000D000D000D0CDB7DEB79E838D834B01A0
:102A30003A016901802F21E030E029014C185D083E
:102A4000002711270C191D09000F111FAA24A39498
:102A5000B12C22242394312C982F94709983A82F81
:102A6000A270AA83B82FB870BB8381708C83C50114
:102A700001978C159D050CF0A7C057FC07C091E08D
:102A8000C91AD1080E5F1F4F400E511EA2E02A0E38
:102A9000311C420C531CB981BB2311F1AD81BE81A5
:102AA000ED91FC9111970484F585E02D9701A60125
:102AB000460D571DB4016A0D7B1DCD010995AD81F1
:102AC000BE81ED91FC9111970484F585E02D97016D
:102AD000A3014A0D5B1DB601680D791DCD01099555
:102AE000BA81BB2311F1AD81BE81ED91FC911197AB
:102AF0000484F585E02D9701A3014C195D09B4010B
:102B00006A0D7B1DCD010995AD81BE81ED91FC91D2
:102B100011970484F585E02D9701A3014A195B09FB
:102B2000B601680D791DCD010995BB81BB2311F15B
:102B3000AD81BE81ED91FC9111970484F585E02D66
:102B40009701A3014A0D5B1DB4016C197D09CD01EC
:102B50000995AD81BE81ED91FC9111970484F585B5
:102B6000E02D9701A601460D571DB4016A197B0996
:102B7000CD010995BC81B11104C08FEFA81AB80A24
:102B800076CFAD81BE81ED91FC9111970484F585DE
:102B9000E02D9701A3014A195B09B4016C197D0965
:102BA000CD010995AD81BE81ED91FC911197048411
:102BB000F585E02D9701A3014C195D09B4016A194F
:102BC0007B09CD010995D9CF26960FB6F894DEBFC3
:102BD0000FBECDBFDF91CF911F910F91FF90EF906E
:102BE000DF90CF90BF90AF909F908F907F906F902D
:102BF0005F904F903F902F9008952F923F924F9269
:102C00005F926F927F928F929F92AF92BF92CF927C
:102C1000DF92EF92FF920F931F93CF93DF93CDB785
:102C2000DEB728970FB6F894DEBF0FBECDBF5C01AC
:102C30003B014A0138872F83FC82EB82260181E029
:102C400090E06C01C21AD30AC9019195819591094E
:102C50009C01220F331F3A832983170133E0230E8F
:102C6000311CEE24E394F12C802F81708D8302704F
:102C70000E83C70101972F813885821793070CF0C7
:102C800078C0D7FC0BC02150310938872F83898148
:102C90009A8102969A838983C80ED91EC701880F2C
:102CA000991F0196C80ED91E9D81992359F12F8134
:102CB0003885220F331F2F5F3F4FAB81BC812A0F16
:102CC0003B1FD501ED91FC910088F189E02D820137
:102CD000A4018F819885481B590BB3016E0D7F1D90
:102CE000C5010995D501ED91FC910088F189E02D90
:102CF0009101A4014E195F096F817885660D771DDA
:102D0000C5010995BE81B11107C09FEFE91AF90A03
:102D1000A2E02A0E311CADCF2F813885220F331F40
:102D20002F5F3F4F8B819C81280F391FD501ED917B
:102D3000FC910088F189E02D8201A4018F819885A2
:102D4000481B590BB3016E197F09C5010995D501BF
:102D5000ED91FC910088F189E02D9101A4014E19BB
:102D60005F09B3018F819885681B790BC5010995AF
:102D7000CCCF28960FB6F894DEBF0FBECDBFDF9143
:102D8000CF911F910F91FF90EF90DF90CF90BF9068
:102D9000AF909F908F907F906F905F904F903F90FB
:102DA0002F9008958F929F92AF92BF92CF92DF9211
:102DB000EF92FF920F931F93CF93DF9300D000D039
:102DC000CDB7DEB77C014B015A016901FC01828D50
:102DD000938D8732934991F4F7018589823031F4DC
:102DE000F0E2AF0EB11C005E1F4F08C0833031F41B
:102DF00020E2820E911C80E2C80ED11CF70192A93C
:102E000082A173A190FF19C099828A82DB82CC8251
:102E1000AE014F5F5F4F64E090E00E946312F701E4
:102E200084A1B982AA821B830C83AE014F5F5F4FDE
:102E300064E090E00E9463123AC0A401682FC701C9
:102E40000E94BE12F70164A175A1A501C7010E94ED
:102E5000BE12F70182A985FF0EC0858980FF06C0DA
:102E6000102F0027A02AB12A850105C0DC2CCC2414
:102E70008C289D286401F70160A571A5A401C701F4
:102E80000E94BE12F70164A575A5A501C7010E94A5
:102E9000BE12F70162A573A5A601C7010E94BE126A
:102EA000F70166A577A5A801C7010E94BE120F9081
:102EB0000F900F900F90DF91CF911F910F91FF9086
:102EC000EF90DF90CF90BF90AF909F908F9008953C
:102ED0000F931F93CF93DF934398429825B12C7F94
:102EE000392F3370232B25B92BB123709C7F922B64
:102EF0009BB94198419A95B19C7F282F2370922BC2
:102F000095B99BB193708C7F892B8BB94198419A6D
:102F100084B18C7F84B98AB183708AB9429A0E9445
:102F2000F711EC010E94F711AC01409A439A84B169
:102F3000836084B98AB18C6F8AB9CE01A0E0B0E019
:102F4000DC019927882760E070E08C019D01042B4B
:102F5000152B262B372BC901B801DF91CF911F917B
:102F60000F91089581E080936A0484B1836084B9ED
:102F70008AB18C6F8AB9389A399A3A9A3B9A3C9AB4
:102F8000439A409A419A449A62E370E080E090E06C
:102F90000E94130D449864E670E080E090E00E9487
:102FA000130D449A64E670E080E090E00E94130DF7
:102FB00040E050E060EB70E086E394E00C94BE12D9
:102FC000CF93DF93EC0180916A04811102C00E94CB
:102FD000B2174398429885B18C7F9D2F9370892BAF
:102FE00085B98BB18370DC7FD82BDBB94198419ACE
:102FF00085B18C7F9C2F9370892B85B98BB18370A1
:10300000CC7FC82BCBB94198419A84B18C7F84B9CD
:103010008AB183708AB9429A0E94F711409A439A02
:1030200024B1236024B92AB12C6F2AB9DF91CF9142
:103030000895EBECFEE09491E7EBFEE02491E3EAE7
:10304000FEE0E491EE2309F43CC0992339F193307A
:1030500091F038F49130A9F0923001F594B59F7D4C
:1030600012C0973091F09830A1F09430B9F490915B
:1030700080009F7D03C0909180009F779093800097
:103080000DC094B59F7794BD09C09091B0009F7713
:1030900003C09091B0009F7D9093B000F0E0EE0FE0
:1030A000FF1FE457F14FA591B4919FB7F894811198
:1030B00004C08C912095282302C0EC912E2B2C93D8
:1030C0009FBF08952F923F924F925F926F927F928F
:1030D0008F929F92AF92BF92CF92DF92EF92FF9228
:1030E0000F931F93CF93DF93CDB7DEB76B970FB6D8
:1030F000F894DEBF0FBECDBF9B8F8A8F5B011A0194
:10310000D22E1F830E833701C982DC0158962D9180
:103110003C9159972115310509F0E6C018968D911B
:103120009C911997681779070CF0CDC11A968D916B
:103130009C911B97481759070CF0C5C18C2C912CFA
:10314000FB0126E0C29EE00DF11D1124FB87EA87FA
:103150001E161F060CF0B7C1A40183E0440F551FD3
:103160008A95E1F75D874C87CA01820D931D181679
:1031700019060CF0A8C157968C91811104C05FEA22
:103180005D1508F4D394AA8DBB8DED91FC91119738
:103190000284F385E02DCD010995B5E0DB9EC001E9
:1031A0001124F5013596FF87EE87BB82AA8225019F
:1031B0009C012A193B09398B288BA101485F5F4F7D
:1031C0005B8B4A8BE889F989E40DF51DE457F64FCE
:1031D0005491588761013D822C82888580FF13C0FD
:1031E000AA8DBB8DED91FC91B981B13031F404848D
:1031F000F585E02D2E813F8116C00684F785E02DF0
:10320000EE80FF801AC0EE81FF81E615F705F1F030
:10321000AA8DBB8DED91FC91B981B13051F404843C
:10322000F585E02D9301A601B2018A8D9B8D09954C
:103230000DC00684F785E02D7301840194014C8153
:103240005D816A817B818A8D9B8D0995E885E695F4
:10325000E887FFEFCF1ADF0A2C813D81280D391D49
:103260003D832C834A895B89C416D50609F0B5CF06
:103270005FEF451A550A8A819B81880D991D9B83B2
:103280008A83AE85BF854A165B0609F09BCFEE8127
:10329000FF81E615F70509F4F4C0EA8DFB8DA081E6
:1032A000B181F981F13079F4B5016B5F7F4F5096B0
:1032B000ED91FC915197830128E030E0A1018A8DC6
:1032C0009B8D0995DEC06A857B85681979091E96F4
:1032D000ED91FC911F9773010C851D859401A1014F
:1032E0008A8D9B8D0995CDC0F9013496E491DE1A43
:1032F000F901329685919491B7E0DB9E800D911D86
:103300001124F901259134913B8B2A8BFC012591E5
:1033100034912901FC013296C490319634913E8754
:10332000329614913196D4904981423058F0612EF2
:10333000012E000C77088D2D0D2C000C990B998710
:10334000888704C019861886612C712CAA8DBB8DC4
:10335000ED91FC9111970284F385E02DCD01099543
:10336000B9818B2E912C689CC001699C900D789C32
:10337000900D1124FC01EA0DFB1DFD87EC871A82DC
:10338000712C612CE12F110FFF0B95012E0F3F1FA8
:103390003B872A87AC0CB11CA5014E0F5F1F5F8BCA
:1033A0004E8BC1018D0D911DD7FC9A95998F888FF9
:1033B0009E85691608F065C0862D90E04885598580
:1033C000480F591F489D9001499D300D589D300D63
:1033D0001124D101A20FB31FB98BA88BEC85FD85F9
:1033E000FD83EC83AA84BB84DA80FA85DF1A288DFA
:1033F000398D280F391F3D8B2C8B8D2D8A0D4E89D1
:103400005F89A416B506C1F1877041F4C201019627
:10341000EA89FB89E40DF51D74902C0177FE21C02B
:10342000AA8DBB8DED91FC91B981B13061F404841A
:10343000F585E02D2E813F814C895D89B5018A8D0E
:103440009B8D09950EC00684F785E02DEE80FF80E8
:1034500084019401488959896C817D818A8D9B8D75
:103460000995770CEFEFAE1ABE0A2C813D81280D2D
:10347000391D3D832C83C1CF3A813C0D3A8363943F
:1034800097CFAA8DBB8DED91FC9111970688F78996
:10349000E02DCD016B960FB6F894DEBF0FBECDBF09
:1034A000DF91CF911F910F91FF90EF90DF90CF9020
:1034B000BF90AF909F908F907F906F905F904F9054
:1034C0003F902F9009946B960FB6F894DEBF0FBE15
:1034D000CDBFDF91CF911F910F91FF90EF90DF90C3
:1034E000CF90BF90AF909F908F907F906F905F90A4
:1034F0004F903F902F900895EF92FF920F931F935C
:10350000CF93DF938C017B01C0E0D0E0F701EC0F9B
:10351000FD1F6491662361F0D801ED91FC9101904B
:10352000F081E02DC8010995892B11F02196EECF8D
:10353000CE01DF91CF911F910F91FF90EF900895F1
:103540006115710579F0FB0101900020E9F73197D1
:10355000AF01461B570BDC01ED91FC910280F3811A
:10356000E02D099480E090E00895CF93DF93BC01B3
:103570008EED91E00E947C1AEC0169EB71E08EED1A
:1035800091E00E94A01A8C0F9D1FDF91CF910895AA
:103590008F929F92AF92BF920F931F93CF93DF931F
:1035A000CDB7DEB7A1970FB6F894DEBF0FBECDBF83
:1035B00019A2423008F44AE08E010F5D1F4F842E9D
:1035C000912CA12CB12CA50194010E94D521E62FAC
:1035D000B901CA0101501109EA3014F4E05D01C0DB
:1035E000E95CD801EC93232B242B252B61F7B80140
:1035F0008EED91E00E94A01AA1960FB6F894DEBF5E
:103600000FBECDBFDF91CF911F910F91BF90AF90B3
:103610009F908F900895CF92DF92EF92FF92CF9379
:10362000DF936B017C016DE28EED91E00E94510C05
:10363000EC0166277727CB016C197D098E099F095C
:103640004AE00E94C81A8C0F9D1FDF91CF91FF9016
:10365000EF90DF90CF900895789484B5826084BD18
:1036600084B5816084BD85B5826085BD85B5816086
:1036700085BD80916E00816080936E001092810004
:1036800080918100826080938100809181008160BF
:103690008093810080918000816080938000809180
:1036A000B10084608093B1008091B000816080930C
:1036B000B00080917A00846080937A0080917A00D3
:1036C000826080937A0080917A00816080937A0092
:1036D00080917A00806880937A001092C100E09116
:1036E000EE01F091EF0182E08083E091EA01F09138
:1036F000EB011082E091EC01F091ED018FEC808301
:103700001092F601E091F201F091F30186E08083DE
:10371000E091F001F091F101808180618083E0917E
:10372000F001F091F101808188608083E091F001E7
:10373000F091F101808180688083E091F001F09147
:10374000F10180818F7D808382E699E00E94B51A25
:1037500084E399E00E94B51A67EA71E08EED91E08A
:103760000E94A01A60913E0470913F04072E000C45
:10377000880B990B97FF03C00E940B1B03C04AE004
:103780000E94C81A67EB71E08EED91E00E94A01ACA
:103790006091400470914104072E000C880B990B36
:1037A00097FF03C00E940B1B03C04AE00E94C81A87
:1037B00069EB71E08EED91E00E94A01A0E94B217B1
:1037C00080E090E00E94E017883024E5920709F439
:1037D000B4C0803234E5930709F4F7C489389948B6
:1037E00009F4F6C487E690E00E94E0178734974416
:1037F00009F4F1C48FEB90E00E941012613824E9C3
:10380000720709F4EBC4613135E1730709F4E9C4C7
:10381000603285E1780709F4E7C4613895E17907FA
:1038200009F4E5C46115744109F4E4C48FEE90E035
:103830000E9410126732734909F4DFC484E090E0FB
:103840000E946817611520E8720739F48DE698E048
:103850000E94B51AC7E5D3E89EC06235754809F4E1
:10386000CFC483ED90E00E9468172DE6270F223029
:1038700070F0633D710509F4C6C4633D734D09F4EE
:10388000C5C480E090E00E94E017EC0101C0EB01AC
:10389000C532F3E9DF0739F48BE199E00E94B51AEC
:1038A000C5E2D3E978C0C83223E9D20739F482E00F
:1038B00099E00E94B51AC8E2D3E96DC0C53335E47A
:1038C000D30739F488EE98E00E94B51AC5E3D5E431
:1038D00062C0C53785E7D80739F48FEC98E00E94BD
:1038E000B51AC5E7D5E757C0C13493E9D90719F42C
:1038F00086EB98E04CC0C338E7E7DE0739F48EE981
:1039000098E00E94B51AC3E8D7E745C0C033F2E893
:10391000DF0739F486E898E00E94B51AC0E3D2E8E0
:103920003AC0C73523E8D20709F490CFC13031E05F
:10393000D30729F485E598E02AC0C8E0D4E56BE315
:1039400078E08EED91E00E947C1ABE0180E090E06C
:1039500040E10E94C81A69EB71E08EED91E00E948F
:10396000A01A82E098E00E94B51A8DED97E00E94BF
:10397000B51A87EA97E00E94B51A8FE697E00E9491
:10398000B51A86E397E00E94B51A80E297E00E949C
:10399000B51AC1E4D3E90E94B217109267041092DD
:1039A0006604D0935104C0935004C03283E9D80711
:1039B00009F4AFC008F050C0C938E7E7DE0709F4E2
:1039C00088C008F5C03224E5D20709F4BEC038F437
:1039D000C830D44509F012C184E091E19CC0C930DF
:1039E00098E6D90709F4A0C0C338D74709F006C143
:1039F00082E091E1909369048093680464E071E04F
:103A00008CE196E063C0C033F2E8DF0709F454C0EC
:103A1000B8F4C339D74709F0F1C080E090E1909342
:103A200069048093680460EC70E088E690E00E948E
:103A3000970D80E991E090933D0480933C04DEC0B3
:103A4000C73583E8D80709F44FC0C230D34909F01D
:103A5000D5C083E094E0A4C0C932E3E9DE0709F4ED
:103A60009DC0A8F4C63223E9D20709F46EC028F439
:103A7000C532D34909F45BC0C1C0C73293E9D90745
:103A800009F47CC0C832D34909F451C0B7C0C5336A
:103A9000F3E9DF0709F44EC028F4C133D34909F430
:103AA00049C0ACC0C83383E9D80709F474C0C13435
:103AB000D34909F47EC0A2C082E099E190936904E1
:103AC0008093680464E071E088E195E00E94970DBE
:103AD00095C083E194E090936904809368046DE558
:103AE00070E08BEB94E088C083E194E190936904EB
:103AF000809368046FE070E08CEA94E00E94F50D1A
:103B000080EE91E090933D0480933C0480E491E04A
:103B100030C084E090E1909369048093680468EE7B
:103B200070E084EC93E0D2CF82E091E105C080E0C8
:103B300091E102C080E090E1909369048093680471
:103B40006CED70E088EE92E0C1CF84E090E190935C
:103B50006904809368046CEC70E08CE192E00E9450
:103B6000970D80E991E090933D0480933C0480EFB1
:103B700090E090933B0480933A0440C083E094E04B
:103B8000909369048093680460E470E08CED91E0A8
:103B90000E94F50DE6CF83E194E002C083E096E158
:103BA00090936904809368046FE070E08DEC91E07D
:103BB00023C083E194E0909369048093680483EDCB
:103BC00090E00E946817672B682B692B89F461E3EA
:103BD00070E08CE991E00E94F50D8091680490916D
:103BE000690484609061909369048093680406C0BE
:103BF00064E770E088E291E00E94F50D209169048D
:103C0000822F82958F7090E0817099279093530452
:103C10008093520460E086E394E00E94C30960E070
:103C200086E394E00E94640860E086E394E00E94EA
:103C3000C30960E070E086E394E00E940411ABE405
:103C4000AA2EA1E0BA2EBBE7CB2EB2E0DB2EC5E553
:103C50006C2E712C00E010E022242A94322CE60114
:103C60002501812C912CFAE0EF2EF12CF2018191AB
:103C700091912F01FB82EA827D826C822CE330E0FD
:103C80003F832E83EEE1F0E0F987E8873C862B86C0
:103C90009E878D87388A2F86F2E0FA8726E334E004
:103CA00039832883B401600F711F60507F4F49E052
:103CB00050E0CE0141960E94312460E0CE010E9486
:103CC000F71230E5E30EF11C6D9685E0880E911C2D
:103CD0009AEFE916F10451F6E6E0AE0EB11CF7E5F5
:103CE000CF0ED11C015F1F4F22E3620E711C0B34FB
:103CF000110509F0B4CFEE24EA94FE2C02E310E0A3
:103D00002CED30E04AE050E06AE070E086E394E0B9
:103D10000E947E0E81E00E941918A0913304B0E049
:103D2000FD01EA56F14F049180913004682F70E054
:103D3000FB01EA56F14FC4914091320450E0FA0180
:103D4000EA56F14FE4902091310430E0F901EA564F
:103D5000F14F2490FD01E655F14F7490FB01E655BB
:103D6000F14FB490FA01E655F14FF490F901E655A0
:103D7000F14F649060E00E94C00C60E080913104DB
:103D80000E94C00CD0E0CC0FDD1FC457D14FFE0104
:103D9000A591B4918C915B2C509485218C93312CFE
:103DA000F101EE0FFF1FCF018457914F1C01FC0161
:103DB000A591B4918C91962D909589238C9361E077
:103DC000809133040E94C00C61E0809132040E9413
:103DD000C00C10E0000F111F0457114FF801A591FE
:103DE000B4918C9187298C93EE2DF0E0EE0FFF1F9C
:103DF000E457F14FA591B4918C91F094F822FC9284
:103E0000809130040E94FC0C4C01809130040E948F
:103E1000FC0C6C01EE24EA9473E0F72EE81AF90A20
:103E200060E0809133040E94C00C60E08091320415
:103E30000E94C00CF801A591B4918C9170948721D7
:103E40008C9361E0809130040E94C00CFE01A5912A
:103E5000B491EC91BE2ABC9261E0809131040E9441
:103E6000C00C809132040E94FC0C5C0180913204F1
:103E70000E94FC0C8A159B0529F4BB24B3948C1476
:103E80009D0409F0B12CCC24CA9423E0D22EC81A88
:103E9000D90A61E0809133040E94C00CF801A59119
:103EA000B491EC917E227C92F101A591B491EC91B8
:103EB0006E2A6C92FE01A591B4918C9158225C926D
:103EC00060E0809130040E94C00C809132040E9416
:103ED000FC0CEC01809130040E94FC0C0091340435
:103EE0001091350401151105E1F1BC01990F880B02
:103EF000990B0E941D232B013C01BE01DD0F880B95
:103F0000990B0E941D239B01AC01C301B2010E94C9
:103F1000732220E030E040E85FE30E9406222B019C
:103F20003C01B7010F2C000C880B990B0E941D233C
:103F3000A30192010E94A9232B013C01B80180E05A
:103F400090E00E941B23A30192010E94A92320E07C
:103F500030E040E85AE30E94A9230E94E522EB01E9
:103F600007C0BC016C1B7D0BCFEFD3E0C61BD70B8A
:103F7000B11002C0C0E0D0E080E00E94191861E0FA
:103F800080E10E94C00C61E081E10E94C00C2B978F
:103F9000CD3DD34008F053C080903E0490903F0444
:103FA000092C000CAA08BB08C701FF0CAA0BBB0B0D
:103FB0009C01AD0124563109410951096627772733
:103FC000CB01681979098A099B090E94162424E308
:103FD00033E040E050E00E94AB21DA01C901880DD6
:103FE000991DAA1DBB1D7C01C0914004D0914104C4
:103FF0004E010D2E000CAA08BB08C601DD0CAA0B51
:10400000BB0B9C01AD0126543109410951096627BA
:104010007727CB01681979098A099B090E94162420
:104020002EE333E040E050E00E94AB21DA01C90109
:10403000880D991DAA1DBB1D6E01C81AD90AEBE790
:10404000F2E051E022813381438DE216F3060CF455
:104050008FC086819781820F931FE816F9060CF0B6
:1040600087C084819581C816D9060CF481C020854B
:104070003185820F931FC816D9060CF079C0448F82
:10408000538F7D962EE234E02E173F07D9F600E0DD
:1040900011E0CBE7D2E0F12C80E2E82E8B8D81118C
:1040A00003C08C8D811167C08B8D882309F456C0A5
:1040B0008C8D811153C061E0CE010E94F71282E025
:1040C0008F1508F05DC09091D3019C3078F4A92F32
:1040D000B0E0AA53BE4FF80180818C93E1E0E90F74
:1040E000E093D301F0E0EA53FE4F108266EC71E0FA
:1040F0008EED91E00E94A01A69EB71E08EED91E0E7
:104100000E94A01A2CE030E0309343042093420434
:1041100084E190E09093450480934404EFE1F8EF4C
:10412000F0934704E0934604109249041092480427
:10413000F3E0F0934A0466EC71E086E394E00E94B9
:10414000A01A22E0F2122EC087E799E00E94A31481
:1041500064E670E080E090E00E94130DF3946D96A9
:104160000B5F1F4F3FE0F31299CF0E943308D2CD6F
:10417000448F138E86CF60E0CE010E94F71294CF59
:10418000F1E0FF12B3CFE091D301AE2FB0E0AA531C
:10419000BE4F1C92E150E093D301F0E0EA53FE4F92
:1041A000E082A4CFF110D4CF8FE699E00E94A3144F
:1041B0006CEB71E08EED91E00E94A01A66EC71E06C
:1041C0008EED91E00E94A01AC3CFC0E2D4E5B7CB38
:1041D000C9E8D2E1B4CBC7E4D3E8B1CBC1E8D4E9B4
:1041E000AECBC1E1D5E1ABCBC0E2D5E1A8CBC1E814
:1041F000D5E1A5CBC4E1D8E6A2CBC7E2D3E99FCBFA
:10420000C9E8D7E79CCBC3EDD0E099CBC3EDD3EDA4
:1042100096CB1092E1011092E00188EE93E0A0E0CD
:10422000B0E08093E2019093E301A093E401B093A6
:10423000E5018DE691E09093DF018093DE0185EC4E
:1042400090E09093EB018093EA0184EC90E09093EE
:10425000ED018093EC0180EC90E09093EF0180936E
:10426000EE0181EC90E09093F1018093F00182ECFB
:1042700090E09093F3018093F20186EC90E09093AC
:10428000F5018093F4011092F7011092F801109259
:10429000F9011092FA01109239041092380420EFBB
:1042A00030E030933B0420933A0480E491E0909313
:1042B0003D0480933C0430933F0420933E0490934C
:1042C00041048093400410924B04109243041092D6
:1042D0004204109245041092440481E080934A0401
:1042E0002FEF3FEF30934904209348043093470465
:1042F0002093460480934C0410924D0410924F0476
:1043000010924E048FE791E0909337048093360427
:1043100081E18093300480E18093320489E08093CE
:10432000310488E0809333048CE291E0909335046B
:10433000809334048AE090E090932F0480932E04BD
:10434000EBE7F2E08EE294E0118210827D968E1708
:104350009F07D1F70895052E97FB1EF400940E9445
:10436000C22157FD07D00E94D52107FC03D04EF48F
:104370000C94C22150954095309521953F4F4F4F59
:104380005F4F089590958095709561957F4F8F4F01
:104390009F4F08950E94F721A59F900DB49F900D07
:1043A000A49F800D911D11240895A1E21A2EAA1B2D
:1043B000BB1BFD010DC0AA1FBB1FEE1FFF1FA217D5
:1043C000B307E407F50720F0A21BB30BE40BF50BD2
:1043D000661F771F881F991F1A9469F7609570955B
:1043E000809590959B01AC01BD01CF010895A29FDE
:1043F000B001B39FC001A39F700D811D1124911DB9
:10440000B29F700D811D1124911D08955058BB2736
:10441000AA270E941E220C946F230E94612338F069
:104420000E94682320F039F49F3F19F426F40C947D
:104430005E230EF4E095E7FB0C945823E92F0E94CD
:10444000802358F3BA17620773078407950720F093
:1044500079F4A6F50C94A2230EF4E0950B2EBA2F56
:10446000A02D0B01B90190010C01CA01A00111247A
:10447000FF27591B99F0593F50F4503E68F11A1626
:10448000F040A22F232F342F4427585FF3CF4695B7
:1044900037952795A795F0405395C9F77EF41F16D9
:1044A000BA0B620B730B840BBAF09150A1F0FF0FA3
:1044B000BB1F661F771F881FC2F70EC0BA0F621F8F
:1044C000731F841F48F4879577956795B795F7957F
:1044D0009E3F08F0B0CF9395880F08F09927EE0F14
:1044E0009795879508950E9487220C946F230E94C8
:1044F000682358F00E94612340F029F45F3F29F0BF
:104500000C94582351110C94A3230C945E230E9405
:10451000802368F39923B1F3552391F3951B550B31
:10452000BB27AA2762177307840738F09F5F5F4F86
:10453000220F331F441FAA1FA9F335D00E2E3AF0C5
:10454000E0E832D091505040E695001CCAF72BD0DD
:10455000FE2F29D0660F771F881FBB1F261737072E
:104560004807AB07B0E809F0BB0B802DBF01FF2760
:1045700093585F4F3AF09E3F510578F00C945823C2
:104580000C94A3235F3FE4F3983ED4F3869577958C
:104590006795B795F7959F5FC9F7880F911D969519
:1045A000879597F90895E1E0660F771F881FBB1F75
:1045B000621773078407BA0720F0621B730B840B22
:1045C000BA0BEE1F88F7E09508950E94EC226894DC
:1045D000B1110C94A32308950E94882388F09F575B
:1045E00098F0B92F9927B751B0F0E1F0660F771F17
:1045F000881F991F1AF0BA95C9F714C0B13091F00D
:104600000E94A223B1E008950C94A223672F782F73
:104610008827B85F39F0B93FCCF3869577956795D1
:10462000B395D9F73EF490958095709561957F4F3D
:104630008F4F9F4F0895E89409C097FB3EF49095E3
:104640008095709561957F4F8F4F9F4F9923A9F06B
:10465000F92F96E9BB279395F695879577956795FA
:10466000B795F111F8CFFAF4BB0F11F460FF1BC03E
:104670006F5F7F4F8F4F9F4F16C0882311F096E9D1
:1046800011C0772321F09EE8872F762F05C066237F
:1046900071F096E8862F70E060E02AF09A95660F38
:1046A000771F881FDAF7880F9695879597F90895F1
:1046B00097F99F6780E870E060E008959FEF80ECD5
:1046C000089500240A941616170618060906089578
:1046D00000240A9412161306140605060895092EDE
:1046E0000394000C11F4882352F0BB0F40F4BF2B4D
:1046F00011F460FF04C06F5F7F4F8F4F9F4F08958D
:1047000057FD9058440F551F59F05F3F71F0479582
:10471000880F97FB991F61F09F3F79F08795089567
:10472000121613061406551FF2CF4695F1DF08C086
:10473000161617061806991FF1CF869571056105A3
:1047400008940895E894BB2766277727CB0197F94B
:1047500008950E94BC230C946F230E94612338F0BB
:104760000E94682320F0952311F00C9458230C9498
:104770005E2311240C94A3230E94802370F3959F41
:10478000C1F3950F50E0551F629FF001729FBB2748
:10479000F00DB11D639FAA27F00DB11DAA1F649FE4
:1047A0006627B00DA11D661F829F2227B00DA11D97
:1047B000621F739FB00DA11D621F839FA00D611D1D
:1047C000221F749F3327A00D611D231F849F600D3E
:1047D000211D822F762F6A2F11249F5750409AF067
:1047E000F1F088234AF0EE0FFF1FBB1F661F771FF3
:1047F000881F91505040A9F79E3F510580F00C94BE
:1048000058230C94A3235F3FE4F3983ED4F386959A
:1048100077956795B795F795E7959F5FC1F7FE2B5D
:10482000880F911D9695879597F90895DB018F93D1
:104830009F930E94CA21BF91AF91A29F800D911DAD
:10484000A39F900DB29F900D11240895EE0FFF1FAE
:104850000590F491E02D099481E090E0F8940C9497
:104860004024FB01DC014150504048F001900D9282
:104870000020C9F701C01D9241505040E0F7089553
:04488000F894FFCFDA
:1048840053656E6400436C720000456E6400003131
:10489400000000003200000000330000000034007B
:1048A4000000003500000000360000000037000062
:1048B4000000380000000039000000002A00000059
:1048C4000030000000002300000000E003EF7B0044
:1048D400F81F001F001F001F001F001F001F001FE4
:1048E400001F0020FD1F0020FD00000000510CD41B
:1048F40014F6079E0C27080508190800000000217B
:1049040011D41401110011A4081E1047101F103BEC
:10491400102F104E101E10C3096408540E410E15BA
:10492400090411DD0E7E0E544654202073697A6505
:104934002020697320200078000D0A0043616C6C0C
:06494400696E672000000F
:107E0000112484B714BE81FFF0D085E080938100F7
:107E100082E08093C00088E18093C10086E0809377
:107E2000C20080E18093C4008EE0C9D0259A86E02C
:107E300020E33CEF91E0309385002093840096BBD3
:107E4000B09BFECF1D9AA8958150A9F7CC24DD24C4
:107E500088248394B5E0AB2EA1E19A2EF3E0BF2EE7
:107E6000A2D0813461F49FD0082FAFD0023811F036
:107E7000013811F484E001C083E08DD089C08234E0
:107E800011F484E103C0853419F485E0A6D080C0E4
:107E9000853579F488D0E82EFF2485D0082F10E0AE
:107EA000102F00270E291F29000F111F8ED06801E7
:107EB0006FC0863521F484E090D080E0DECF843638
:107EC00009F040C070D06FD0082F6DD080E0C81688
:107ED00080E7D80618F4F601B7BEE895C0E0D1E017
:107EE00062D089930C17E1F7F0E0CF16F0E7DF06D8
:107EF00018F0F601B7BEE89568D007B600FCFDCFD4
:107F0000A601A0E0B1E02C9130E011968C91119780
:107F100090E0982F8827822B932B1296FA010C0160
:107F200087BEE89511244E5F5F4FF1E0A038BF0790
:107F300051F7F601A7BEE89507B600FCFDCF97BE46
:107F4000E89526C08437B1F42ED02DD0F82E2BD052
:107F50003CD0F601EF2C8F010F5F1F4F84911BD097
:107F6000EA94F801C1F70894C11CD11CFA94CF0C13
:107F7000D11C0EC0853739F428D08EE10CD085E9AC
:107F80000AD08FE07ACF813511F488E018D01DD067
:107F900080E101D065CF982F8091C00085FFFCCF94
:107FA0009093C60008958091C00087FFFCCF809118
:107FB000C00084FD01C0A8958091C6000895E0E648
:107FC000F0E098E1908380830895EDDF803219F02E
:107FD00088E0F5DFFFCF84E1DECF1F93182FE3DFCA
:107FE0001150E9F7F2DF1F91089580E0E8DFEE27F6
:047FF000FF270994CA
:027FFE00040479
:0400000300007E007B
:00000001FF