:100000000C9420010C9448010C9448010C94480174
:100010000C9448010C9448010C9448010C9448013C
:100020000C9448010C9448010C9448010C9448012C
:100030000C9448010C9448010C9448010C9448011C
:100040000C94A9040C9448010C9448010C944801A8
:100050000C9448010C9448010C9448010C944801FC
:100060000C94F3040C94480107634236B79BD8A75D
:100070001A39685618AEBAAB558C1D3CB7CC5763CD
:10008000BD6DEDFD753EF6177231BF000000803F7B
:1000900008000000BE922449123EABAAAA2ABECD97
:1000A000CCCC4C3E00000080BEABAAAAAA3E000009
:1000B0000000BF000000803F000000000008417801
:1000C000D3BB4387D1133D190E3CC3BD4282AD2B38
:1000D0003E68EC8276BED98FE1A93E4C80EFFFBE30
:1000E00001C4FF7F3F000000000000407A10F35A77
:1000F00000A0724E18090010A5D4E80000E8764868
:10010000170000E40B54020000CA9A3B000000E113
:10011000F505000080969800000040420F000000A6
:10012000A08601000000102700000000E803000086
:1001300000006400000000000A0000000000010050
:10014000000000002C76D888DC674F0823DFC1DF71
:10015000AE59E1B1B796E5E3E453C63AE651997674
:1001600096E8E6C28426EB898C9B62ED407C6FFCAE
:10017000EFBC9C9F40F2BAA56FA5F490055A2AF7F0
:100180005C936B6CF9676DC11BFCE0E40D47FEF5F9
:1001900020E6B500D0ED902E030094357705008061
:1001A000841E080000204E0A000000C80C333333C0
:1001B000330F986E12831141EF8D2114893BE65560
:1001C00016CFFEE6DB18D1844B381BF77C1D901D43
:1001D000A4BBE424203284725E228100C9F124ECA5
:1001E000A1E53D2700000000240027002A000000B0
:1001F0000000250028002B0000000008000201007C
:1002000000030407000000000000000000000000E0
:100210002300260029000404040404040404020248
:100220000202020203030303030301020408102075
:1002300040800102040810200102040810203C0C38
:1002400011241FBECFEFD8E0DEBFCDBF22E0A4E96E
:10025000B1E001C01D92AC38B207E1F711E0A0E0B7
:10026000B1E0E2EFF9E202C005900D92A439B107C6
:10027000D9F711E0C0E2D1E004C02197FE010E944D
:10028000F512CF31D107C9F70E94B4090C94F714C5
:100290000C940000CF92DF92EF92FF920F931F9386
:1002A000CF93DF936C017A018B01C0E0D0E0CE15D3
:1002B000DF0581F0D8016D918D01D601ED91FC91A2
:1002C0000190F081E02DC6010995892B11F021964E
:1002D000EECF7E01C701DF91CF911F910F91FF906B
:1002E000EF90DF90CF900895CF93DF9390E0FC01E3
:1002F000E65DFD4F2491FC01EA5EFD4F8491882369
:1003000061F190E0880F991FFC01EC51FE4FC591FF
:10031000D491FC01E251FE4FA591B491611109C045
:100320009FB7F8948881209582238883EC912E23AF
:100330000BC0623061F49FB7F8948881322F3095FA
:1003400083238883EC912E2B2C939FBF06C08FB7FD
:10035000F894E8812E2B28838FBFDF91CF910895E9
:100360008E3008F08E508770806480937C0080917E
:100370007A00806480937A0080917A0086FDFCCFB9
:10038000809178002091790090E0922B08953FB7FA
:10039000F89480913E0290913F02A0914002B0916A
:1003A000410226B5A89B05C02F3F19F00196A11D5B
:1003B000B11D3FBFBA2FA92F982F8827820F911DFB
:1003C000A11DB11DBC01CD0142E0660F771F881F42
:1003D000991F4A95D1F7089585ED8093BC008091CF
:1003E000BC0084FDFCCF10924C0208954091F601B0
:1003F000262F30E0240F311D21323105DCF420910D
:100400004C022430C9F4FC0180E090E0861758F4D7
:100410003091F6012191DC01AA52BE4FA30FB11D0C
:100420002C930196F3CF8091F601680F6093F6014B
:1004300080E0089581E0089582E008950895089588
:100440000895E091500280914F02E81730F4F0E0F7
:10045000EA54FE4F808190E008958FEF9FEF08955A
:100460009091500280914F02981750F4E92FF0E0DC
:10047000EA54FE4F208130E09F5F9093500202C00B
:100480002FEF3FEFC901089580914F0290E0209136
:100490005002821B91090895CF92DF92EF92FF9252
:1004A0000F931F93CF93DF937C01CB018A0120919F
:1004B000B501222389F0EB016B01C40ED51ECC15CA
:1004C000DD0569F06991D701ED91FC910190F08112
:1004D000E02DC7010995F3CF642F0E94F601C801F2
:1004E000DF91CF911F910F91FF90EF90DF90CF9010
:1004F0000895CF93DF931F92CDB7DEB76983209124
:10050000B5012223D1F020914D02203240F021E0AC
:1005100030E0FC013383228380E090E015C08091BD
:100520004E02E82FF0E0EB56FE4F998190838F5FEB
:1005300080934E0280934D0205C061E0CE0101968A
:100540000E94F60181E090E00F90DF91CF91089535
:10055000089580E090E008950E94E2140F931F93A5
:10056000CF93DF93EC0188819981009729F02A814C
:100570003B812617370788F48B016F5F7F4F0E94FE
:100580001C14009761F0998388831B830A832C8154
:100590003D81232B11F4FC01108281E001C080E039
:1005A000DF91CF911F910F910895CF93DF93EC01CD
:1005B00088819981009711F00E9493131982188203
:1005C0001D821C821B821A82DF91CF910895EF92C7
:1005D000FF920F931F93CF93DF93EC011982188240
:1005E0001B821A821D821C826115710521F18B010B
:1005F000FB0101900020E9F731977F01E61AF70A25
:10060000B7010E94AE02811109C0CE01DF91CF91E6
:100610001F910F91FF90EF900C94D502FD82EC8218
:10062000B80188819981DF91CF911F910F91FF903F
:10063000EF900C94F014DF91CF911F910F91FF90E8
:10064000EF90089590E0FC01E850FE4F2491FC01EA
:10065000E65DFD4F3491FC01EA5EFD4FE491EE232F
:1006600009F43CC0222339F1233091F038F42130D1
:10067000A9F0223001F584B58F7D12C0273091F0AA
:100680002830A1F02430B9F4809180008F7D03C020
:10069000809180008F77809380000DC084B58F7724
:1006A00084BD09C08091B0008F7703C08091B000F5
:1006B0008F7D8093B000F0E0EE0FFF1FE251FE4F00
:1006C000A591B4919FB7F894611104C08C913095B5
:1006D000382302C0EC913E2B3C939FBF08958F922C
:1006E0009F92AF92BF92CF92DF92EF92FF926B01F7
:1006F0007C010E94C7014B015C01C114D104E104DB
:10070000F104F1F00E94C701DC01CB0188199909BD
:10071000AA09BB09883E9340A105B10570F321E009
:10072000C21AD108E108F10888EE880E83E0981E0D
:10073000A11CB11CC114D104E104F10419F7DDCFEF
:10074000FF90EF90DF90CF90BF90AF909F908F90F1
:100750000895CF92DF92EF92FF920F931F93CF9362
:10076000DF93CDB7DEB7C054D1400FB6F894DEBFEB
:100770000FBECDBF2FB7F8948091420290914302F3
:10078000A0914402B09145022FBF40917F02509149
:10079000800260918102709182028C019D01041B94
:1007A000150B260B370BB901A801403D57406105D9
:1007B000710518F480918702BCC080937F029093EA
:1007C0008002A0938102B093820210927A0210926A
:1007D000790210927802109277021092760261E00C
:1007E00080917B020E9422036AEF70E080E090E03B
:1007F0000E946F0361E080917B020E94740160E0BF
:1008000080917B020E94220364E170E080E090E02E
:100810000E946F03F89461E080917B020E942203A2
:100820008BE990E00197F1F762E080917B020E94F2
:10083000740183E290E00197F1F780E00E9466097D
:10084000672B682B692B21F41092870278943EC0A5
:1008500081E00E946609672B682B692BA9F38E0142
:100860000F5F1F4F6E012FEBC21A2EEFD20A7801D5
:1008700080E00E946609F70160837183828393831D
:1008800081E00E946609F7016483758386839783FC
:10089000F8E0EF0EF11CEC14FD0451F7789420E021
:1008A00030E0F801C080D180E280F380448155813E
:1008B00066817781C114D104E104F10429F0411566
:1008C00051056105710521F41092870280E031C065
:1008D000F90183E0F595E7958A95E1F7EA58FD4F30
:1008E0008081880FC416D506E606F70608F48160F5
:1008F00080832F5F3F4F085F1F4F2832310589F6F5
:1009000020917A0230E0409176028091770290E067
:10091000840F911D40917802840F911D40917902BE
:10092000840F911D99272817390771F681E080936C
:100930008702C05CDE4F0FB6F894DEBF0FBECDBF9E
:10094000DF91CF911F910F91FF90EF90DF90CF90AB
:1009500008951F920F920FB60F9211242F933F9379
:100960008F939F93AF93BF938091420290914302E4
:10097000A0914402B091450230913D0223E0230F43
:100980002D3720F40196A11DB11D05C026E8230FC7
:100990000296A11DB11D20933D02809342029093C7
:1009A0004302A0934402B093450280913E0290918D
:1009B0003F02A0914002B09141020196A11DB11DDC
:1009C00080933E0290933F02A0934002B093410275
:1009D000BF91AF919F918F913F912F910F900FBE3B
:1009E0000F901F9018951F920F920FB60F9211241F
:1009F0002F933F934F935F936F937F938F939F9327
:100A0000AF93BF93EF93FF938091B900887F8036B7
:100A100009F49CC068F5883209F45BC090F4803119
:100A200009F454C038F4882309F4F6C0883009F476
:100A30004DC0F6C0883109F44CC0803209F45DC065
:100A4000EFC0803409F468C048F4803309F455C01D
:100A5000883309F0E5C080931902D8C0803509F4C5
:100A60004FC0883509F45DC0883409F0D9C0D6C0BC
:100A7000883909F4C7C0A8F4883709F467C038F486
:100A8000883609F463C0803709F460C0C9C088386B
:100A900009F4B8C0803909F45FC0803809F0C0C0DB
:100AA0005BC0803B09F486C038F4803A09F466C024
:100AB000883A09F47FC0B4C0803C09F4A7C0883CE0
:100AC00009F4A4C0883B09F48AC0AAC080913C0202
:100AD00010C090913B0280913A02981770F5E09116
:100AE0003B0281E08E0F80933B02F0E0E65EFD4F1B
:100AF00080818093BB0085EC86C0809319028EC0F4
:100B0000E0913B0281E08E0F80933B028091BB001D
:100B1000F0E0E65EFD4F808390913B0280913A02C7
:100B20006EC0E0913B0281E08E0F80933B0280918A
:100B3000BB00F0E0E65EFD4F808380914B028111A7
:100B40006DC081E080934A0284EA61C083E08093B3
:100B50004C0210921802CFCF80911802803208F018
:100B600051C0E091180281E08E0F809318028091AD
:100B7000BB00F0E0E850FE4F8083BDCF85EC809352
:100B8000BC0010924C0280911802803230F4E09147
:100B90001802F0E0E850FE4F10826091180270E0F9
:100BA000E0914602F091470288EF91E0099510929A
:100BB000180236C084E080934C021092F701109224
:100BC000F601E0914802F091490209958091F60101
:100BD000811105C081E08093F6011092D601E09169
:100BE000F70181E08E0F8093F701F0E0EA52FE4FAB
:100BF00080818093BB009091F7018091F601981756
:100C000008F479CF85E88093BC000AC085EC809316
:100C1000BC0010924C0204C0109219020E94EC0118
:100C2000FF91EF91BF91AF919F918F917F916F91C4
:100C30005F914F913F912F910F900FBE0F901F909A
:100C40001895CF93FC01C48121E02093B501C09396
:100C5000940110924E0210924D028385682B81E51B
:100C600092E00E94790290914D02913208F045C0C5
:100C700080914C028111FCCF82E080934C0281E094
:100C800080934B028FEF8093190210923B02909356
:100C90003A02A5E9B1E0EAE1F2E080E0981721F03C
:100CA0002D9121938F5FFACF10923C0280913C02EC
:100CB000CC0FC82BC0933C0280914A02813061F472
:100CC00010924A0280913C028093BB008091BC004C
:100CD00083FDF8CF85EC01C085EE8093BC00809148
:100CE0004C028230E1F3809119028F3F31F0809104
:100CF0001902803211F08091190210924E02109266
:100D00004D021092B501CF9108950F931F93CF9389
:100D10008C01C62F0E9421066C2F6460C8010E94BE
:100D200021066C2F6B7FC8010E94210683EC90E0A6
:100D30000197F1F7CF911F910F9108950F931F9392
:100D4000CF93DF938C01C62FD42F607F642B0E943A
:100D5000850680E1C89FB00111246D2BC801DF9189
:100D6000CF911F910F910C94850641E00E949E0641
:100D700081E090E008956115710551F0FB0101904B
:100D80000020E9F73197AF01461B570B0C944A013D
:100D900080E090E00895CF93DF93CDB7DEB728973A
:100DA0000FB6F894DEBF0FBECDBF9C0188E0EEE029
:100DB000F1E0DE01119601900D928A95E1F7F901BB
:100DC0008085841710F44FEF480FFE013196E40F31
:100DD000F11DE40FF11D9081690F606840E0C901C9
:100DE00028960FB6F894DEBF0FBECDBFDF91CF912E
:100DF0000C949E0640E061E00E949E068BE39FE11A
:100E00000197F1F708950F931F93CF93DF93EC01B0
:100E10001092500210924F0210924E0210924D0208
:100E200010924C0281E080934B0210924A0261E0E2
:100E300082E10E94220361E083E10E94220380910B
:100E4000B9008E7F8093B9008091B9008D7F809327
:100E5000B90088E48093B80085E48093BC008EE1FB
:100E600092E090934902809348028FE192E0909340
:100E70004702809346021D828A85823010F098E0F6
:100E80009D83888762E370E080E090E00E946F03BA
:100E90006B85CE010E94210668EE73E080E090E051
:100EA0000E946F0360E3CE010E9485060BE416E406
:100EB000C8010197F1F760E3CE010E948506C801E1
:100EC0000197F1F760E3CE010E94850683E592E089
:100ED0000197F1F760E2CE010E9485066D816062A4
:100EE00040E0CE010E949E0684E08E8340E06CE0EC
:100EF000CE010E949E06CE010E94FA0682E08F83F8
:100F000040E066E0CE010E949E0640E062E0CE0135
:100F10000E949E068BE39FE10197F1F7DF91CF914D
:100F20001F910F9108950F931F93CF93DF93EC01BF
:100F30000C811D810F5F1F4FB8010E94AE028823F4
:100F400069F0288139818C819D8165E771E0820F8C
:100F5000931F0E94F0141D830C8303C0CE010E94D6
:100F6000D502CE01DF91CF911F910F910895EF929D
:100F7000FF920F931F93CF93DF93EC01FB0104814A
:100F80001581E080F180E114F104C9F0011511052B
:100F9000C9F08C819D81080F191FB801CE010E94F4
:100FA000AE02882361F0288139818C819D81B7014F
:100FB000820F931F0E94F0141D830C8303C0CE0187
:100FC0000E94D502CE01DF91CF911F910F91FF902A
:100FD000EF900895CF92DF92EF92FF920F931F93BD
:100FE000CF93DF93CDB7DEB7A1970FB6F894DEBFEE
:100FF0000FBECDBF7C01CB01BA01F7011182108277
:1010000013821282158214828E010F5F1F4F22E01D
:1010100044E00E94890C6C01009771F0FC01019082
:101020000020E9F731978F01081B190BB801C701A0
:101030000E94AE02811104C0C7010E94D50208C0FF
:10104000F70115830483B601808191810E94F01419
:10105000A1960FB6F894DEBF0FBECDBFDF91CF9142
:101060001F910F91FF90EF90DF90CF9008950C9417
:10107000BB062F923F924F925F926F927F928F9218
:101080009F92AF92BF92CF92DF92EF92FF920F9317
:101090001F93CF93DF93CDB7DEB7A5970FB6F89424
:1010A000DEBF0FBECDBF4B015C01F42E9B01AC0136
:1010B0000E949911882319F067E871E027C0240184
:1010C0003501E89477F82FEF3FEF4FE75FE7C30173
:1010D000B2010E94991181110DC02FEF3FEF4FE730
:1010E0005FE7C301B2010E94DB0E18161CF46BE827
:1010F00071E00CC02FEF3FEF4FE75FE4C501B40193
:101100000E94441118163CF46FE871E08AE692E000
:101110000E94BB06C2C02FEF3FEF4FE75FECC50157
:10112000B4010E94DB0E87FDEFCF20E030E0A90183
:10113000C501B4010E94DB0E87FF0FC041E06DE2E4
:101140008AE692E00E949E06B7FAB094B7F8B0948F
:1011500081E090E09BA38AA302C01BA21AA210E028
:1011600060E070E080E09FE3F11641F020E030E0C5
:1011700040E251E40E94A3101F5FF6CFA501940145
:101180000E9437104B015C010E941511762EC72E6C
:10119000D82EE92E19A2262F372F482F592F8E012E
:1011A0000F5D1F4F0CA3612E9AE0292E312C412C8C
:1011B000512CCA01B901A20191010E94D312605DB4
:1011C000F80162938F01211531054105510589F719
:1011D000BF018AE692E00E94BB060AA11BA1080F8C
:1011E000191FFF2009F458C0672D7C2D8D2D9E2DD1
:1011F0000E94E00E9B01AC01C501B4010E943610B3
:101200004B015C0141E06EE28AE692E00E949E069C
:101210000F5F1F4F8AE0282E312C412C512C20E0EB
:1012200030E040E251E4C501B4010E94410F4B019E
:101230005C010E9415119B0140E050E019A2CCA076
:10124000D62C762E3AA34DA3E52ECA01B901A201F0
:1012500091010E94D312605DF60162936F01211526
:1012600031054105510589F7BF018AE692E00E94E8
:10127000BB06080F191F672D7AA18DA19E2D0E9414
:10128000E00E9B01AC01C501B4010E9436104B0178
:101290005C01FA94F110C3CFC801A5960FB6F8947B
:1012A000DEBF0FBECDBFDF91CF911F910F91FF9099
:1012B000EF90DF90CF90BF90AF909F908F907F90F6
:1012C0006F905F904F903F902F9008958F929F92D4
:1012D000AF92BF92CF92DF92EF92FF92CF93DF93C4
:1012E000A0917D02882311F03A2F01C030E0809157
:1012F0007E0290E0880F991F845F9D4FC09083020B
:10130000D0908402E0908502F090860240E050E0A8
:10131000BA01FC01C591D49128812A23231314C05A
:101320004A015B012FEF821A920AA20AB20A4C15F7
:101330005D056E057F0518F4B501A401EACF30E024
:1013400020E080E090E003C0342F252FCB01632FF5
:10135000722FDF91CF91FF90EF90DF90CF90BF90F1
:10136000AF909F908F900895CF93DF93CDB7DEB766
:101370002C970FB6F894DEBF0FBECDBF789484B51E
:10138000826084BD84B5816084BD85B5826085BD81
:1013900085B5816085BD80916E00816080936E000F
:1013A0001092810080918100826080938100809101
:1013B00081008160809381008091800081608093B2
:1013C00080008091B10084608093B1008091B00072
:1013D00081608093B00080917A00846080937A006D
:1013E00080917A00826080937A0080917A00816097
:1013F00080937A0080917A00806880937A001092BE
:10140000C10062E080917B020E94740180E398EF4A
:10141000AFEFBFEF80937F0290938002A093810291
:10142000B093820261E081E00E94740160E081E09B
:101430000E9422038AE692E00E94030718E01093BC
:10144000750260E08AE692E00E94210640E060E0DA
:101450008AE692E00E94CB068EE592E00E940307A6
:101460001093690260E08EE592E00E94210640E060
:1014700060E08EE592E00E94CB0628E0822E21E01B
:10148000922E30E0A32E30E0B32E0E94A9038823D1
:10149000F1F180917C028B3029F0C8F185518230C6
:1014A00058F035C06091780270E080E090E00E94D2
:1014B000E00E6B017C0131C010917802612F6F77D3
:1014C00070E080E090E00E94E20E20E030E040E832
:1014D00053E40E94410F6B017C016091790270E03E
:1014E00080E090E00E94E20EA70196010E94371072
:1014F0002DEC3CEC4CEC5DE30E94410F6B017C0158
:1015000017FF0BC0F7FAF094F7F8F09406C0C12C5F
:10151000D12C90ECE92E9FE7F92E0E94A903882395
:1015200099F180917C028B3029F170F185518230E4
:1015300058F56091760270E080E090E00E94E00E45
:1015400020E030E040E853E40E94410F2B013C01D1
:101550006091770270E080E090E00E94E20EA301CB
:1015600092010E9437102DEC3CEC4CEC5DE30E94A4
:10157000410F07C06091760270E080E090E00E9429
:10158000E00E2B013C0106C0412C512C80EC682E52
:101590008FE7782E83E10E94B0018C01A7019601AC
:1015A000C701B6010E949911811108C0A3019201DF
:1015B000C301B2010E949911882349F18AE692E0A1
:1015C0000E94FA0640E060E08AE692E00E94CB06C4
:1015D00066E371E08AE692E00E94370841E060E04D
:1015E0008AE692E00E94CB0667E771E08AE692E025
:1015F0000E94370868EB7BE080E090E00E946F0378
:10160000A114B10409F441CF0E9400003ECF0D3F68
:101610001340DCF08EE592E00E94FA0640E060E0C4
:101620008EE592E00E94CB0666E371E08EE592E0E3
:101630000E94370841E060E08EE592E00E94CB0610
:1016400065E471E08EE592E0D3CF40E060E48AE6A5
:1016500092E00E949E0600E011E0F80161918F0186
:101660008AE692E00E94B50680169106B1F78AE6F6
:1016700092E00E94FA0640E060E08AE692E00E9472
:10168000CB0663E571E08AE692E00E94370840E00D
:101690006AE08AE692E00E94CB066AE571E08AE69B
:1016A00092E00E94370841E060E08AE692E00E9402
:1016B000CB0642E0C701B6010E94390860E08AE625
:1016C00092E00E94B50661E671E08AE692E00E942F
:1016D000370841E06AE08AE692E00E94CB0642E0E9
:1016E000C301B2010E94390863E671E08AE692E024
:1016F0000E94370880915D020E94B0018C0140E099
:1017000060E08EE592E00E94CB06B801110F880BD5
:10171000990B0E94E20E9B01AC0160E070EC8FE738
:1017200094E40E94A31020E030E040EA50E40E94DC
:10173000410F20E030E040E85FE30E94361020E0F7
:1017400030E040E251E40E94410F21E232E447ECF4
:101750005FE30E94410FAB01BC01CE0101960E94E4
:10176000EA0765E671E0CE0107960E94E702BE0136
:101770006F5F7F4FCE0107960E94B7070E949307C5
:10178000FC0144815581608171818EE592E00E9467
:101790004A018F8198850E94931389819A810E94C2
:1017A000931380915D020E94B001BC01990F880BD8
:1017B000990B0E94E20E9B01AC0160E070EC8FE798
:1017C00094E40E94A31020E030E040EA50E40E943C
:1017D000410F20E030E040E85FE30E94361020E057
:1017E00030E040E251E40E94410F2FE832E449E941
:1017F00052E40E94A3102EED37E341E350EC0E9427
:1018000049116B017C0141E060E08EE592E00E94AD
:10181000CB0622E434E349EE52E4C701B6010E944C
:10182000410FAB01BC01CE0101960E94EA076DE6B3
:1018300071E0CE0107960E94E702BE016F5F7F4F05
:10184000CE0107960E94B7070E949307FC014481CE
:101850005581608171818EE592E00E944A018F81FD
:1018600098850E94931389819A810E94931364E65C
:1018700070E080E090E0C2CEE1E5F2E013821282F7
:1018800088EE93E0A0E0B0E084839583A683B783DD
:101890008AE191E091838083A6E7B2E082E0159629
:1018A0008C9315979BE016969C931697ECE2F2E0CA
:1018B000E4911796EC931797E8E1F2E0E49118961B
:1018C000EC93189740E85EE360E070E01D964D935E
:1018D0005D936D937C935097EAE6F2E01382128257
:1018E0002CE231E0318320839FE3948390E1918760
:1018F00082871386EEE5F2E0138212823183208321
:101900002BE3248391878287138683E180935D0292
:101910000895EF920F931F93CF93DF93E80147FD54
:1019200002C034E001C034E1042E000C550B57FF17
:1019300003C0519541955109E32E022F242FAE018A
:101940000E94A90CCE01DF91CF911F910F91EF90D2
:101950000895A9E0B0E0EFEAFCE00C9405106A01FC
:10196000122FB02E2BE3201720F0FF24F394F00E5B
:1019700002C02CE3F22E0F2D27E0AE014F5F5F4F28
:101980000E94030EBC014981842F8970813031F09F
:10199000E1FC06C0E0FE06C090E205C09DE203C087
:1019A0009BE201C090E05E2D507143FF3CC091115D
:1019B00002C083E001C084E0811718F4212F281BA6
:1019C00001C020E051110BC0F601822F30E28823C4
:1019D00019F031938150FBCFC20ED11C20E0992326
:1019E00029F0D6019C93F60131966F01C60103964A
:1019F000E2FE0AC03EE4D6013C9341E411964C93CA
:101A0000119712963C9306C03EE6F601308341E6FC
:101A100041833283FC01322F40E2332309F442C078
:101A200041933150FACF42FF44C0911102C083E08C
:101A300001C084E0811718F4212F281B01C020E089
:101A400051110BC0F601822F30E2882319F0319337
:101A50008150FBCFC20ED11C20E0992329F0D60182
:101A60009C93F60131966F01C6010396E2FE0BC00E
:101A700039E4D6013C933EE411963C93119736E449
:101A800012963C9307C039E6F60130833EE6318377
:101A900036E63283FC01322F40E2332319F04193C2
:101AA0003150FBCFFC01E20FF11D10828EEF9FEF52
:101AB000A6C021E030E0911102C020E030E016160F
:101AC00017061CF4FB01319602C0E1E0F0E02E0F96
:101AD0003F1FBB2021F0EB2DF0E0319602C0E0E08B
:101AE000F0E02E0F3F1FE12FF0E02E173F071CF410
:101AF000121B212F01C020E08E2D887159F4F601B0
:101B0000822F30E2882319F031938150FBCFC20E2F
:101B1000D11C20E0992329F0D6019C93F60131963F
:101B20006F0151110BC0F601822F90E3882319F049
:101B300091938150FBCFC20ED11C20E00F2D060FD8
:101B40009A81342F307144FF03C0913309F401505E
:101B5000101624F4093018F008E001C001E0AB01D0
:101B600077FF02C040E050E0FB01E41BF50BA1E071
:101B7000B0E0AC0FBD1FEA0FFB1F8EE2A82E4B0199
:101B8000801A91080B2D10E01195019511094F3F16
:101B9000BFEF5B0721F4D601AC9211966D0164177B
:101BA00075072CF08416950614F4818101C080E33A
:101BB000415051093196D60111967D0140175107C8
:101BC00024F0D6018C936701E2CF6417750739F4CE
:101BD000963320F4953319F4311101C081E3F601F5
:101BE0008083F701822F90E2882319F0919381502E
:101BF000FBCFF701E20FF11D108280E090E0299603
:101C0000ECE00C942110283008F027E03327DA01AB
:101C1000990F311D87FD916000966105710539F4BA
:101C200032602E5F3D9330E32A95E1F708959F3FA0
:101C300030F080387105610509F03C5F3C5F3D93F1
:101C4000913008F08068911DDF93CF931F930F931D
:101C5000FF92EF92192F987F9695E92F969596957A
:101C6000E90FFF27EC5BFE4F99273327EE24FF2473
:101C7000A701E70105900894079428F4360FE71EA2
:101C8000F81E491F511D660F771F881F991F069464
:101C9000A1F70590079428F4E70EF81E491F561F78
:101CA000C11D770F881F991F661F0694A1F7059025
:101CB000079428F4F80E491F561FC71FD11D880F1F
:101CC000991F661F771F0694A1F70590079420F4CB
:101CD000490F561FC71FD81F990F661F771F881FF0
:101CE0000694A9F784911095177041F0D695C79581
:101CF00057954795F794E7941A95C1F7EAEEF0E007
:101D000068941590159135916591959105907FE2B4
:101D10007395E118F10A430B560BC90BD009C0F7B4
:101D2000E10CF11E431F561FC91FD01D7EF47033F6
:101D300011F48A95E6CFE894015030F0080F0AF4C8
:101D40000027021708F4202F2395022F7A3328F05A
:101D500079E37D932A95E9F710C07D932A9589F65A
:101D6000069497956795379517951794E118F10A9A
:101D7000430B560BC90BD00998F023957E917395B0
:101D80007A3308F070E37C932013B8F77E9170618A
:101D90007D9330F0839571E37D9370E32A95E1F7AD
:101DA0001124EF90FF900F911F91CF91DF91992710
:101DB00087FD909508950E941D0F08F481E0089515
:101DC000E89409C097FB3EF49095809570956195D5
:101DD0007F4F8F4F9F4F9923A9F0F92F96E9BB278B
:101DE0009395F695879577956795B795F111F8CF07
:101DF000FAF4BB0F11F460FF1BC06F5F7F4F8F4F72
:101E00009F4F16C0882311F096E911C0772321F067
:101E10009EE8872F762F05C0662371F096E8862FFF
:101E200070E060E02AF09A95660F771F881FDAF756
:101E3000880F9695879597F90895990F0008550F83
:101E4000AA0BE0E8FEEF16161706E807F907C0F040
:101E500012161306E407F50798F0621B730B840B48
:101E6000950B39F40A2661F0232B242B252B21F422
:101E700008950A2609F4A140A6958FEF811D811DC2
:101E800008950E94540F0C94C50F0E94B70F38F0AC
:101E90000E94BE0F20F0952311F00C94AE0F0C940D
:101EA000B40F11240C94F90F0E94D60F70F3959F74
:101EB000C1F3950F50E0551F629FF001729FBB2741
:101EC000F00DB11D639FAA27F00DB11DAA1F649FDD
:101ED0006627B00DA11D661F829F2227B00DA11D90
:101EE000621F739FB00DA11D621F839FA00D611D16
:101EF000221F749F3327A00D611D231F849F600D37
:101F0000211D822F762F6A2F11249F5750409AF05F
:101F1000F1F088234AF0EE0FFF1FBB1F661F771FEB
:101F2000881F91505040A9F79E3F510580F00C94B6
:101F3000AE0F0C94F90F5F3FE4F3983ED4F386950F
:101F400077956795B795F795E7959F5FC1F7FE2B56
:101F5000880F911D9695879597F9089597F99F6732
:101F600080E870E060E008959FEF80EC0895002421
:101F70000A941616170618060906089500240A94EE
:101F800012161306140605060895092E0394000C74
:101F900011F4882352F0BB0F40F4BF2B11F460FF03
:101FA00004C06F5F7F4F8F4F9F4F089557FD90582C
:101FB000440F551F59F05F3F71F04795880F97FB0D
:101FC000991F61F09F3F79F08795089512161306C7
:101FD0001406551FF2CF4695F1DF08C016161706F6
:101FE0001806991FF1CF869571056105089408952B
:101FF000E894BB2766277727CB0197F908952F929E
:102000003F924F925F926F927F928F929F92AF9288
:10201000BF92CF92DF92EF92FF920F931F93CF93D5
:10202000DF93CDB7DEB7CA1BDB0B0FB6F894DEBF6C
:102030000FBECDBF09942A88398848885F846E8492
:102040007D848C849B84AA84B984C884DF80EE80DC
:10205000FD800C811B81AA81B981CE0FD11D0FB6E5
:10206000F894DEBF0FBECDBFED0108955058BB27D9
:10207000AA270E944E100C94C50F0E94B70F38F08B
:102080000E94BE0F20F039F49F3F19F426F40C94FF
:10209000B40F0EF4E095E7FB0C94AE0FE92F0E940D
:1020A000D60F58F3BA17620773078407950720F015
:1020B00079F4A6F50C94F80F0EF4E0950B2EBA2FD8
:1020C000A02D0B01B90190010C01CA01A00111243E
:1020D000FF27591B99F0593F50F4503E68F11A16EA
:1020E000F040A22F232F342F4427585FF3CF46957B
:1020F00037952795A795F0405395C9F77EF41F169D
:10210000BA0B620B730B840BBAF09150A1F0FF0F66
:10211000BB1F661F771F881FC2F70EC0BA0F621F52
:10212000731F841F48F4879577956795B795F79542
:102130009E3F08F0B0CF9395880F08F09927EE0FD7
:102140009795879508950E94B7100C94C50F0E942B
:10215000BE0F58F00E94B70F40F029F45F3F29F0FE
:102160000C94AE0F51110C94F90F0C94B40F0E9403
:10217000D60F68F39923B1F3552391F3951B550BB3
:10218000BB27AA2762177307840738F09F5F5F4F4A
:10219000220F331F441FAA1FA9F335D00E2E3AF089
:1021A000E0E832D091505040E695001CCAF72BD0A1
:1021B000FE2F29D0660F771F881FBB1F26173707F2
:1021C0004807AB07B0E809F0BB0B802DBF01FF2724
:1021D00093585F4F3AF09E3F510578F00C94AE0F44
:1021E0000C94F90F5F3FE4F3983ED4F3869577950E
:1021F0006795B795F7959F5FC9F7880F911D9695DD
:10220000879597F90895E1E0660F771F881FBB1F38
:10221000621773078407BA0720F0621B730B840BE5
:10222000BA0BEE1F88F7E09508950E94DE0F88F044
:102230009F5798F0B92F9927B751B0F0E1F0660F8A
:10224000771F881F991F1AF0BA95C9F714C0B130CB
:1022500091F00E94F80FB1E008950C94F80F672FE9
:10226000782F8827B85F39F0B93FCCF386957795FA
:102270006795B395D9F73EF49095809570956195E3
:102280007F4F8F4F9F4F08950E941D0F08F48FEFCF
:102290000895FA01EE0FFF1F309621053105A1F1D7
:1022A0006115710561F48038BFE39B0749F16894BB
:1022B0009038810561F08038BFEF9B0741F099238A
:1022C0004AF5FF3FE1053105210519F1E89408942D
:1022D000E795D901AA2329F4AB2FBE2FF85FD0F3DD
:1022E00010C0FF5F70F4A695E0F7F73950F019F0D1
:1022F000FF3A38F49F779F930DD00F9007FC9058CA
:10230000089546F00C94B40F60E070E080E89FE31D
:1023100008954FE79F775F934F933F932F930E94CA
:1023200049122F913F914F915F910E94410F0C9460
:10233000A6110E941D0F880B990B089529F416F021
:102340000C94AE0F0C94F80F0C94B40F0E94DE0F97
:10235000A8F39638A0F707F80F92E8942BE33AEA2F
:1023600048EB5FE70E94570F0F920F920F924DB705
:102370005EB70F920E949112E8E6F0E00E94D81139
:102380004F915F91EF91FF91E595EE1FFF1F49F08F
:10239000FE57E0684427EE0F441FFA95E1F7419598
:1023A000550B0E940B120F9007FE0C94FF1108951D
:1023B000DF93CF931F930F93FF92EF92DF927B01F6
:1023C0008C01689406C0DA2EEF010E94540FFE01C2
:1023D000E894A5912591359145915591A6F3EF018A
:1023E0000E944E10FE019701A801DA9469F7DF9070
:1023F000EF90FF900F911F91CF91DF9108959B0176
:10240000AC0160E070E080E89FE30C94A3100C94B2
:10241000AE0F0C94C5120E94DE0FD8F39923C9F3B6
:10242000940F511DA3F39150504094F059F088231C
:1024300032F0660F771F881F91505040C1F79E3FC2
:1024400051052CF7880F911D9695879597F908955A
:102450005F3FACF0983E9CF0BB27869577956795DB
:10246000B79508F4B1609395C1F7BB0F58F711F415
:1024700060FFE8CF6F5F7F4F8F4F9F4FE3CF0C948C
:10248000F90F16F00C94C5120C94B40F68940C94C8
:10249000AE0F0E94DE0FA8F39923C1F3AEF3DF93D2
:1024A000CF931F930F93FF92C92FDD2788232AF024
:1024B0002197660F771F881FDAF720E030E040E8A9
:1024C0005FEB9FE3883920F0803E38F021968F77CC
:1024D0000E943710E0E9F0E004C00E943710EDEBF5
:1024E000F0E00E94D8118B01BE01EC01FB2E6F576A
:1024F00071097595771F880B990B0E94E20E28E1F0
:1025000032E741E35FE30E94540FAF2D9801AE0123
:10251000FF900F911F91CF91DF910E944E100C946C
:10252000C50FFA01DC01AA0FBB1F9B01AC01BF570D
:1025300028F4222733274427507820C0B75190F43D
:10254000AB2F0024469537952795011CA395D2F310
:10255000002071F0220F331F441FB395DAF30ED021
:102560000C94361061307105A0E88A07B94630F442
:102570009B01AC016627772788279078309621F059
:10258000208331834283538308959F3F31F09150DC
:1025900020F4879577956795B795880F911D969547
:1025A000879597F90895A1E21A2EAA1BBB1BFD017E
:1025B0000DC0AA1FBB1FEE1FFF1FA217B307E40722
:1025C000F50720F0A21BB30BE40BF50B661F771F7A
:1025D000881F991F1A9469F760957095809590955A
:1025E0009B01AC01BD01CF010895EE0FFF1F0590C7
:1025F000F491E02D09940F931F93CF93DF938230D2
:10260000910510F482E090E0E0918A02F0918B0253
:1026100020E030E0A0E0B0E0309719F14081518136
:102620000281138148175907C8F08417950769F488
:10263000109731F012960C93129713961C9327C0A3
:1026400000938A0210938B0222C02115310519F0E4
:102650004217530718F49A01BD01EF01DF01F80199
:10266000DBCF21153105F9F0281B390B243031055A
:1026700080F48A819B816115710521F0FB019383B0
:10268000828304C090938B0280938A02FE0132966B
:1026900044C0FE01E20FF31F819391932250310950
:1026A000398328833AC02091880230918902232BF4
:1026B00041F420910A0130910B013093890220935B
:1026C000880220910801309109012115310541F45A
:1026D0002DB73EB740910C0150910D01241B350BD5
:1026E000E0918802F0918902E217F307A0F42E1B13
:1026F0003F0B2817390778F0AC014E5F5F4F241766
:10270000350748F04E0F5F1F5093890240938802AF
:102710008193919302C0E0E0F0E0CF01DF91CF918F
:102720001F910F910895CF93DF93009709F481C013
:10273000FC01329713821282A0918A02B0918B021F
:10274000109781F420813181820F931F209188029C
:10275000309189022817390751F5F0938902E093E7
:10276000880267C0ED0120E030E0CE17DF0740F4BB
:102770004A815B819E0141155105F1F0EA01F5CFD7
:10278000D383C28340815181840F951FC817D90715
:1027900059F488819981840F951F029691838083D3
:1027A0008A819B81938382832115310529F4F093DB
:1027B0008B02E0938A023DC0E901FB83EA834991E1
:1027C0005991C40FD51FEC17FD0761F480819181E9
:1027D000840F951F0296E9019983888382819381F2
:1027E0009B838A83E0E0F0E012968D919C91139791
:1027F000009719F0FD01DC01F7CF8D919C911197A5
:102800009D012E5F3F4F820F931F209188023091D0
:1028100089022817390769F4309729F410928B023E
:1028200010928A0202C013821282B0938902A0938E
:102830008802DF91CF910895A0E0B0E0E2E2F4E1F8
:102840000C940310EC01009721F4CB010E94FB12C1
:10285000B4C0FC01E60FF71F9C0122503109E217BA
:10286000F30708F4A8C0D9010D911C911197061720
:102870001707B0F00530110508F49BC0C801049794
:102880008617970708F495C002501109061B170B0D
:10289000019311936D937C93CF010E94931389C090
:1028A0005B01A01AB10A4C01800E911EA0918A0210
:1028B000B0918B02612C712CE12CF12C109709F452
:1028C00046C08D919C911197A815B905B1F56C0181
:1028D00042E0C40ED11CCA14DB0478F14C018A1802
:1028E0009B08640142E0C40ED11C1296BC90129762
:1028F0001396AC91B5E0CB16D10440F0B282A3831D
:1029000091828082D9016D937C9309C00E5F1F4F25
:10291000800F911FF90191838083EB2DFA2FE11431
:10292000F10431F0D7011396FC93EE93129741C056
:10293000F0938B02E0938A023CC06816790608F493
:102940003C017D0112960D90BC91A02DB7CF8091D6
:1029500088029091890288169906E1F46616770636
:10296000C8F48091080190910901009741F48DB756
:102970009EB740910C0150910D01841B950BE817F7
:10298000F907C8F4F0938902E0938802F901718392
:1029900060830FC0CB010E94FB127C01009759F0AD
:1029A000A801BE010E94E714CE010E949313C70143
:1029B00004C0CE0102C080E090E0CDB7DEB7EEE00B
:1029C0000C941F1081E090E0F8940C94F714FB0134
:1029D000DC0102C001900D9241505040D8F708959B
:1029E000FB01DC0101900D920020E1F70895F894BD
:0229F000FFCF17
:1029F200070507000000000000008C0280000000B4
:102A02004000140054000000000079024C02A902A8
:102A1200200244023002210200000000B5064A01F1
:102A2200A902A8021300426C616420637A756A6E7F
:102A3200696B612000706F77696574727A61202119
:102A420021210054656D70203A0057696C67203A65
:102A52000043002500525A65726F3D2000636F32B9
:102A62002070706D3D200074656D706572617475C3
:102A7200727920212121006E616E00696E66006FFD
:042A82007666000074
:00000001FF
