:100000000C9458000C9480000C9480000C94800098
:100010000C9480000C9480000C9480000C94800060
:100020000C9480000C9480000C9480000C94800050
:100030000C9480000C9480000C9480000C94800040
:100040000C94E7030C9480000C94B5030C948F037C
:100050000C9480000C9480000C9480000C94800020
:100060000C9431040C94800000000000250028004E
:100070002B00040404040404040402020202020229
:10008000030303030303010204081020408001025C
:1000900004081020010204081020000000080002DB
:1000A00001000003040700000000000000005F05DD
:1000B00011241FBECFEFD8E0DEBFCDBF11E0A0E01E
:1000C000B1E0ECEFFDE002C005900D92A033B10766
:1000D000D9F722E0A0E3B1E001C01D92A23AB20735
:1000E000E1F710E0C8E5D0E004C02197FE010E94CE
:1000F000F106C735D107C9F70E94A7050C94FC0685
:100100000C94000090E0FC01E656FF4F2491FC01A6
:10011000EA57FF4F3491FC01EE58FF4FE491EE2374
:10012000B1F1222339F1233091F038F42130A9F0D4
:10013000223001F584B58F7D12C0273091F0283030
:10014000A1F02430B9F4809180008F7D03C08091AC
:1001500080008F77809380000DC084B58F7784BD39
:1001600009C08091B0008F7703C08091B0008F7D6F
:100170008093B000F0E0EE0FFF1FE859FF4FA5910C
:10018000B4918FB7F894EC91E32BEC938FBF089563
:10019000CF92DF92EF92FF920F931F93CF93DF9353
:1001A0006C017A018B01C0E0D0E0CE15DF0581F053
:1001B000D8016D918D01D601ED91FC910190F081F6
:1001C000E02DC6010995892B11F02196EECF7E0115
:1001D000C701DF91CF911F910F91FF90EF90DF90BA
:1001E000CF90089508950895FC01538D448D252FD7
:1001F00030E0842F90E0821B930B541710F0CF96C1
:10020000089501970895FC01918D828D981761F0F2
:10021000828DDF01A80FB11D5D968C91928D9F5F3D
:100220009F73928F90E008958FEF9FEF0895FC01E8
:10023000918D828D981731F0828DE80FF11D858D9B
:1002400090E008958FEF9FEF0895FC01918D228D2E
:10025000892F90E0805C9F4F821B91098F739927B3
:1002600008958DEE91E00E94250121E0892B09F48B
:1002700020E0822F0895FC01848DDF01A80FB11DBD
:10028000A35ABF4F2C91848D90E001968F739927CC
:10029000848FA689B7892C93A089B1898C918370AA
:1002A00080648C93938D848D981306C00288F389A3
:1002B000E02D80818F7D80830895EF92FF920F93D0
:1002C0001F93CF93DF93EC0181E0888F9B8D8C8D02
:1002D000981305C0E889F989808185FD26C0F62E2E
:1002E0000B8D10E00F5F1F4F0F731127E02E8C8DC9
:1002F000E8120CC00FB607FCFACFE889F9898081B3
:1003000085FFF5CFCE010E943B01F1CF8B8DFE0121
:10031000E80FF11DE35AFF4FF0829FB7F8940B8F5F
:10032000EA89FB89808180620AC09FB7F894EE89D0
:10033000FF896083E889F989808183708064808384
:100340009FBF81E090E0DF91CF911F910F91FF90CF
:10035000EF900895CF93DF93EC01888D8823C9F047
:10036000EA89FB89808185FD05C0A889B9898C91BE
:1003700086FD0FC00FB607FCF5CF808185FFF2CF59
:10038000A889B9898C9185FFEDCFCE010E943B01F0
:10039000E7CFDF91CF91089580E090E0892B29F09D
:1003A0000E94310181110C94000008953FB7F89428
:1003B0008091DE019091DF01A091E001B091E10117
:1003C00026B5A89B05C02F3F19F00196A11DB11DB0
:1003D0003FBFBA2FA92F982F8827820F911DA11DEB
:1003E000B11DBC01CD0142E0660F771F881F991F28
:1003F0004A95D1F708958F929F92AF92BF92CF9274
:10040000DF92EF92FF926B017C010E94D6014B01BB
:100410005C01C114D104E104F104F1F00E94D601A1
:10042000DC01CB0188199909AA09BB09883E9340D0
:10043000A105B10570F321E0C21AD108E108F10865
:1004400088EE880E83E0981EA11CB11CC114D10453
:10045000E104F10419F7DDCFFF90EF90DF90CF902A
:10046000BF90AF909F908F90089585ED8093BC00D2
:100470008091BC0084FDFCCF1092E801089540916A
:100480007001262F30E0240F311D21323105DCF4BC
:100490002091E8012430C9F4FC0180E090E0861747
:1004A00058F4309170012191DC01A05BBE4FA30F85
:1004B000B11D2C930196F3CF80917001680F60936A
:1004C000700180E0089581E0089582E00895089524
:1004D000E091EC018091EB01E81730F4F0E0E05D91
:1004E000FE4F808190E008958FEF9FEF08959091E7
:1004F000EC018091EB01981750F4E92FF0E0E05DFA
:10050000FE4F208130E09F5F9093EC0102C02FEFFF
:100510003FEFC90108958091EB0190E02091EC013B
:10052000821B91090895CF92DF92EF92FF920F9371
:100530001F93CF93DF937C01CB018A012091B701F8
:10054000222389F0EB016B01C40ED51ECC15DD050D
:1005500069F06991D701ED91FC910190F081E02D56
:10056000C7010995F3CF642F0E943F02C801DF91B4
:10057000CF911F910F91FF90EF90DF90CF90089552
:10058000CF93DF931F92CDB7DEB769832091B70178
:100590002223D1F02091E901203240F021E030E027
:1005A000FC013383228380E090E015C08091EA0152
:1005B000E82FF0E0E854FE4F998190838F5F80939D
:1005C000EA018093E90105C061E0CE0101960E9435
:1005D0003F0281E090E00F90DF91CF910895CF939B
:1005E000FC01C48121E02093B701C093D80110928F
:1005F000EA011092E9018385682B8AE892E00E9463
:10060000C0029091E901913208F045C08091E80163
:100610008111FCCF82E08093E80181E08093E701C3
:100620008FEF8093B6011092B5019093B401A8EBBF
:10063000B1E0E4E9F1E080E0981721F02D912193F9
:100640008F5FFACF1092930180919301CC0FC82B4A
:10065000C09393018091E601813061F41092E6012C
:10066000809193018093BB008091BC0083FDF8CF03
:1006700085EC01C085EE8093BC008091E80182305A
:10068000E1F38091B6018F3F31F08091B601803265
:1006900011F08091B6011092EA011092E9011092D6
:1006A000B701CF9108950F931F93CF938C01C62F5D
:1006B0000E94EF026C2F6460C8010E94EF026C2F51
:1006C0006B7FC8010E94EF0283EC90E00197F1F785
:1006D000CF911F910F9108950F931F93CF93DF93A5
:1006E0008C01C62FD42F607F642B0E94530380E1BE
:1006F000C89FB00111246D2BC801DF91CF911F91CC
:100700000F910C94530341E00E946C0381E090E050
:100710000895089580E090E008950E94F7061F92E2
:100720000F920FB60F9211242F933F934F935F9325
:100730006F937F938F939F93AF93BF93EF93FF93A9
:100740008DEE91E00E943B01FF91EF91BF91AF913F
:100750009F918F917F916F915F914F913F912F91D9
:100760000F900FBE0F901F9018951F920F920FB60B
:100770000F9211242F938F939F93EF93FF93E09108
:10078000FD01F091FE018081E0910302F0910402ED
:1007900082FD12C09081809106028F5F8F7320913D
:1007A0000702821751F0E0910602F0E0E351FE4F9C
:1007B000958F8093060201C08081FF91EF919F91F8
:1007C0008F912F910F900FBE0F901F9018951F9231
:1007D0000F920FB60F9211242F933F938F939F93F5
:1007E000AF93BF938091DA019091DB01A091DC017E
:1007F000B091DD013091D90123E0230F2D3720F492
:100800000196A11DB11D05C026E8230F0296A11D6A
:10081000B11D2093D9018093DA019093DB01A0935D
:10082000DC01B093DD018091DE019091DF01A091A8
:10083000E001B091E1010196A11DB11D8093DE019F
:100840009093DF01A093E001B093E101BF91AF91DC
:100850009F918F913F912F910F900FBE0F901F90FE
:1008600018951F920F920FB60F9211242F933F935A
:100870004F935F936F937F938F939F93AF93BF93A8
:10088000EF93FF938091B900887F803609F49CC074
:1008900068F5883209F45BC090F4803109F454C0E3
:1008A00038F4882309F4F6C0883009F44DC0F6C046
:1008B000883109F44CC0803209F45DC0EFC0803447
:1008C00009F468C048F4803309F455C0883309F04E
:1008D000E5C08093B601D8C0803509F44FC0883593
:1008E00009F45DC0883409F0D9C0D6C0883909F44C
:1008F000C7C0A8F4883709F467C038F4883609F40B
:1009000063C0803709F460C0C9C0883809F4B8C032
:10091000803909F45FC0803809F0C0C05BC0803BFB
:1009200009F486C038F4803A09F466C0883A09F4BC
:100930007FC0B4C0803C09F4A7C0883C09F4A4C0BF
:10094000883B09F48AC0AAC08091930110C090919D
:10095000B5018091B401981770F5E091B50181E07F
:100960008E0F8093B501F0E0EC56FE4F80818093AE
:10097000BB0085EC86C08093B6018EC0E091B501C6
:1009800081E08E0F8093B5018091BB00F0E0EC56C2
:10099000FE4F80839091B5018091B4016EC0E091CB
:1009A000B50181E08E0F8093B5018091BB00F0E02E
:1009B000EC56FE4F80838091E70181116DC081E08C
:1009C0008093E60184EA61C083E08093E80110929D
:1009D0009201CFCF80919201803208F051C0E09116
:1009E000920181E08E0F809392018091BB00F0E034
:1009F000EE58FE4F8083BDCF85EC8093BC001092F3
:100A0000E80180919201803230F4E0919201F0E0AF
:100A1000EE58FE4F10826091920170E0E091E20189
:100A2000F091E30182E791E009951092920136C0BE
:100A300084E08093E8011092710110927001E091BE
:100A4000E401F091E501099580917001811105C0E3
:100A500081E08093700110925001E091710181E07A
:100A60008E0F80937101F0E0E05BFE4F80818093F8
:100A7000BB009091710180917001981708F479CFB3
:100A800085E88093BC000AC085EC8093BC0010927E
:100A9000E80104C01092B6010E943502FF91EF9167
:100AA000BF91AF919F918F917F916F915F914F9186
:100AB0003F912F910F900FBE0F901F901895EDEE64
:100AC000F1E01382128288EE93E0A0E0B0E084832C
:100AD0009583A683B78324E031E03183208325EC1E
:100AE00030E03587248724EC30E03787268720ECF8
:100AF00030E0318B208B21EC30E0338B228B22ECE9
:100B000030E0358B248B26EC30E0378B268B118E32
:100B1000128E138E148EEAE8F2E01382128284831E
:100B20009583A683B78386E191E091838083E6E98C
:100B3000F2E01382128288E291E0918380838FE356
:100B4000848380E1818782E0828713860895789488
:100B500084B5826084BD84B5816084BD85B58260C2
:100B600085BD85B5816085BD80916E008160809373
:100B70006E001092810080918100826080938100DC
:100B800080918100816080938100809180008160EC
:100B9000809380008091B10084608093B100809147
:100BA000B00081608093B00080917A00846080936F
:100BB0007A0080917A00826080937A0080917A0036
:100BC000816080937A0080917A00806880937A00B7
:100BD0001092C1001092EC011092EB011092EA0108
:100BE0001092E9011092E80181E08093E7011092F0
:100BF000E60182E10E94820083E10E9482008091EE
:100C0000B9008E7F8093B9008091B9008D7F809369
:100C1000B90088E48093B80085E48093BC0082EF3B
:100C200090E09093E5018093E40183EF90E090934E
:100C3000E3018093E20110929B028091A002823036
:100C400018F098E090939B0280939E0262E370E01C
:100C500080E090E00E94FB016091A10286E992E0B1
:100C60000E94EF0268EE73E080E090E00E94FB01DA
:100C700060E386E992E00E945303CBE4D6E4CE0120
:100C80000197F1F760E386E992E00E945303219710
:100C9000F1F760E386E992E00E94530383E592E076
:100CA0000197F1F760E286E992E00E9453036091B8
:100CB0009B02606240E086E992E00E946C0384E05F
:100CC00080939C0240E06CE086E992E00E946C0315
:100CD00040E061E086E992E00E946C03CBE3DFE153
:100CE000CE010197F1F712E010939D0240E066E01B
:100CF00086E992E00E946C0340E062E086E992E0BF
:100D00000E946C032197F1F788E08093A10260E0D4
:100D100086E992E00E94EF02E091FD01F091FE0170
:100D20001083E091F901F091FA011082E091FB014A
:100D3000F091FC018FEC808310920502E09101029A
:100D4000F091020286E08083E091FF01F0910002C1
:100D5000808180618083E091FF01F09100028081B9
:100D600088608083E091FF01F091000280818068BB
:100D70008083E091FF01F091000280818F7D80836C
:100D800040E060E886E992E00E946C03CBE3DFE19B
:100D90008DEE91E00E942501892B01F164E670E05F
:100DA00080E090E00E94FB0140E061E086E992E093
:100DB0000E946C03CE010197F1F78DEE91E00E9445
:100DC00025011816190654F48DEE91E00E940301D6
:100DD000682F86E992E00E948303EFCF0E94CC0146
:100DE000D7CFEE0FFF1F0590F491E02D099481E01D
:0C0DF00090E0F8940C94FC06F894FFCFFF
:100DFC00000000005D01C800F400AA0125010301F8
:100E0C00170100000000C00293028A0367028B02E4
:100E1C0077026802000000008303C8008A0389037C
:00000001FF
